:0400000043EF00F0DA
:0600080001829FEF17F0DA
:100018000180D8CF71F0E8CF72F0E0CF73F0FACF5B
:1000280074F0FBCF75F0D9CF76F0DACF77F0F3CF55
:1000380078F0F4CF79F00E01C2AB06D00E01CAAB4E
:1000480003D08EEC17F007D00E01C3A304D00E0125
:10005800CBB3DFEC11F079C0F4FF78C0F3FF77C0C1
:10006800DAFF76C0D9FF75C0FBFF74C0FAFF73C012
:10007800E0FF72C0E8FF71C0D8FF0190100081EF67
:1000880013F0000120EE02F08E51D9268F51DA22AA
:10009800DF500001956F000120EE03F08E51D92644
:1000A8008F51DA22DF5000019C6F100E00019C6115
:1000B80006D00C0E00019B6F0001986B06D0080E4D
:1000C80000019B6F040E0001986F0001C5050FE148
:1000D8009BC090F000019C510001916F926B902B96
:1000E80003D0D89091379237902FFBD712D09BC06E
:1000F80090F000019551C6C091F00001926B915F9C
:10010800000E925B902B03D0D89091379237902FA6
:10011800FBD791C09DF092C09EF0BEC081F0BFC0D9
:1001280082F0BAC083F0BBC084F0BCC085F0BDC00B
:1001380086F09BC087F0D8EC07F0000181510001E0
:100148009D270001825100019E23020E00019C653B
:100158002AD0000120EE01F08E51D9268F51DA22E3
:10016800DE040DE19DC07AF09EC07BF09CC07CF05F
:1001780000017D6B98C07EF03BEC11F010D09DC063
:100188007AF09EC07BF0FF0E00019C2500017C6F79
:100198007D6BFF0E7D2398C07EF03BEC11F07AC09A
:1001A8009DF07BC09EF000019D05100E9E5904E352
:1001B800100E00019E6F9D6B000120EE01F08E5124
:1001C800D9268F51DA22DF505FE1000120EE04F0DA
:1001D8008E51D9268F51DA22DF500001906F0F0E11
:1001E800901752E00001996B9A6B000120EE04F021
:1001F8008E51D9268F51DA22DF500F0B0001966FEE
:10020800976B09D000019607D8A09707280E000120
:100218009927000E9A23000196519711F3E10001E6
:10022800995100019D5D00019A5100019E5904E217
:1002380000019D6B9E6B08D00001995100019D5FE4
:1002480000019A5100019E5B9DC07AF09EC07BF030
:1002580099C090F09AC091F0D890000190379137EA
:100268009051000800017C6F00019151D8A0E82A44
:10027800100800017D6F0C0E00017E6F3BEC11F041
:100288007AC09DF07BC09EF00001CD510C080001A2
:10029800906F9029916F04D0D89000019E339D33C0
:1002A8000001912FF9D7000190699169CDC092F0B2
:1002B800010E936F946B922B03D0D8909337943799
:1002C800922FFBD70001905193279151942300015D
:1002D8009D510001935D00019E510001945917E260
:1002E800CDC090F0010E0001916F926B902B03D05E
:1002F800D89091379237902FFBD7FF0E00019125A8
:1003080000019D6FFF0E0001922100019E6F9DC0AC
:100318008EF09EC08FF012000301136F0301126B61
:1003280003010C6B03010D6B03011351D8A41200D8
:1003380003011351110DEE0EF3240301146F010E86
:10034800F420156F030120EE01F01451D926155140
:10035800DA22010EDF640AD0030120EE04F0145102
:10036800D9261551DA22D00EDF60D00C030120EE19
:1003780004F01451D9261551DA22DF500301086F11
:1003880008390F0B0001CD6FCDC008F3010E030132
:10039800096F0A6B082B03D0D89009370A37082F42
:1003A800FBD709C3C0F00AC3C1F014C387F015C353
:1003B80088F0E5EC10F0030120EE0EF01451D92678
:1003C8001551DA22000187C0DEFF88C0DDFF030176
:1003D80020EE06F01451D9261551DA2210EE0EF04F
:1003E8001451E1261551E222DE50E65CDE50E65853
:1003F80053E3030120EE10F01451D9261551DA22E7
:10040800DF50030B020A04E1010E03010D6F44D013
:10041800030120EE02F01451D9261551DA22DF50DB
:100428000301106F116B030110519FEC16F00009C6
:1004380011E0010E03010D6F01D82ED00500FA6EF0
:100448000001D951FD6EDA51FE6EFF6AFA500301C0
:10045800135112000301104B112B030120EE02F07F
:100468001451D9261551DA22DF500301086F096BA0
:10047800030120EE03F01451D9261551DA22DF507A
:1004880003010827000E092308510301105D030129
:10049800095103011159C7E303010D5134E1030167
:1004A80020EE0EF01451D9261551DA22DE6ADD6AE3
:1004B80020EE10F01451D9261551DA22DF50030B23
:1004C800020A17E1030120EE10F01451D926155144
:1004D800DA22010EDF6E01D84DD00500FA6E000158
:1004E800D751FD6ED851FE6EFF6AFA5003011351C1
:1004F8001200030120EE10F01451D9261551DA220A
:10050800010EDF6E37D014C300F315C301F3C0EC3E
:1005180012F000C30EF301C30FF3030120EE0CF039
:100528001451D9261551DA2203010E51DE1803E1C0
:100538000F51DE181BE003011285030120EE0CF0B9
:100548001451D9261551DA220EC3DEFF0FC3DDFF81
:1005580001D80CD00500FA6E0001DB51FD6EDC51AC
:10056800FE6EFF6AFA500301135112000301128351
:100578000301128F030120EE10F01451D9261551F2
:10058800DA2212C3DFFF03011251820B03010C139D
:1005980012000001806F00018051020D540EF324F7
:1005A800D96E010EF420DA6E8051060D000E00019E
:1005B8007C6F010E7D6FF3507C27F4507D239F0ED6
:1005C80000018025E16EE26A000EE222E750E72A88
:1005D800020DF35000017C25E16EF4507D21E26E9E
:1005E800DECFE6FFDDCFE5FF9F0E00018025D96E47
:1005F800DA6A000EDA22020EDF6408D09F0E0001CC
:100608008025D96EDA6A000EDA22DF6A000180518D
:10061800060D020EF324D96E010EF420DA6E805115
:10062800060D000EF324E16E010EF420E26EDE509A
:10063800E65CDE50E65856E300018051060D040ED4
:10064800F324D96E010EF420DA6E8051060D020EE5
:10065800F324E16E010EF420E26EDE50E65CDE501B
:10066800E6580EE300018051060D020EF324D96E00
:10067800010EF420DA6EDECF7AF0DDCF7BF01200C7
:1006880000018051060D040EF324D96E010EF420EA
:10069800DA6E8051060D000EF324E16E010EF4208F
:1006A800E26EDE50E65CDE50E6580EE30001805153
:1006B800060D040EF324D96E010EF420DA6EDECF97
:1006C8007AF0DDCF7BF0120000018051060D000E9C
:1006D800F324D96E010EF420DA6EDECF7AF0DDCF86
:1006E8007BF0120000018051060D040EF324D96E30
:1006F800010EF420DA6E8051060D000EF324E16E2F
:10070800010EF420E26EDE50E65CDE50E6580EE3A1
:1007180000018051060D000EF324D96E010EF4205D
:10072800DA6EDECF7AF0DDCF7BF012000001805167
:10073800060D040EF324D96E010EF420DA6E8051F2
:10074800060D020EF324E16E010EF420E26EDE5077
:10075800E65CDE50E6580EE300018051060D040EFB
:10076800F324D96E010EF420DA6EDECF7AF0DDCFF5
:100778007BF0120000018051060D020EF324D96EA1
:10078800010EF420DA6EDECF7AF0DDCF7BF01200B6
:1007980068C0D9FF69C0DAFFDF5000016E6F68C01A
:1007A80064F069C065F0000120EE08F06451D926B4
:1007B8006551DA22DFA802D0010E01D0000E00092F
:1007C8005BE1000120EE04F06851D9266951DA2274
:1007D800DF5000016A6F6B6B090ED8906A376B3770
:1007E800E82EFBD772506A5D73506B5928E20001FE
:1007F80020EE05F06851D9266951DA22DF2A1E0E4B
:10080800DF64000C68C064F069C065F0000120EE88
:1008180008F06451D9266551DA22DF8820EE03F00A
:100828006451D9266551DA22010EDF6E20EE02F0FE
:100838006451D9266551DA22300EDF6E000C68C08B
:1008480064F069C065F0000120EE08F06451D92613
:100858006551DA22DF8820EE03F06451D92665510C
:10086800DA22010EDF6E20EE02F06451D9266551BE
:10087800DA22300EDF6E000C000120EE04F0685121
:10088800D9266951DA22DF5000016A6F6B6BD89064
:100898006A376B3700016E51020D540EF324D96E7E
:1008A800010EF420DA6EDECF6CF0DDCF6DF0725001
:1008B80000016C5D0001646F735000016D59000107
:1008C800656F8AEC16F000016A510001645D000151
:1008D8006B51000165590CE2000120EE02F06851ED
:1008E800D9266951DA22300EDF6E0DD011D0000CF6
:1008F800000120EE03F06851D9266951DA222E0E44
:10090800DF6416D0E9D768C064F069C065F0EED737
:10091800000120EE08F06451D9266551DA22DF86FD
:1009280020EE08F06451D9266551DA22DF98000CD0
:10093800000120EE03F06851D9266951DA22DF2A36
:10094800000C00017F6B000EF2BE010E00017E6FED
:100958000DD00001CB2B0E0ECB1908E10001CB6B9B
:100968000001CA6B010E00017F6F0CD00001CB5152
:10097800D9EC16F00009EDE10001CB51C6EC16F0F8
:100988000009E7E000017F51D8A412000001CB5113
:10099800090D700EF3240001806F010EF420816FA1
:1009A80080C07AF081C07BF0000120EE08F07A5117
:1009B800D9267B51DA22DFA602D0010E01D0000E23
:1009C800000915E0000120EE03F08051D92681517D
:1009D800DA22DF500F015C6F000120EE02F0805137
:1009E800D9268151DA22DF500F015E6F2AD080C0EC
:1009F8007AF081C07BF0000120EE08F07A51D92608
:100A08007B51DA22DFA802D0010E01D0000E0009C6
:100A180013E0000120EE02F08051D9268151DA223C
:100A2800DF500F015E6F000120EE03F08051D926E0
:100A38008151DA22DF5003D0300E0F015E6F0F01B3
:100A48005C6F0001C7510F015E27000120EE01F025
:100A58008051D9268151DA22DF500F015F6F0001E2
:100A680020EE04F08051D9268151DA22DF500001AE
:100A78007C6FD8907C31666E000120EE05F08051C5
:100A8800D9268151DA22DF500F015D6F608E010E89
:100A98000001CA6F00017A6F0001CB5150EC0BF0D6
:100AA800F29E6080000120EE04F08051D926815129
:100AB800DA22DF5000017C6F7D6B090ED8907C37FD
:100AC8007D37E82EFBD77CC070FF7DC071FF000129
:100AD8007EA102D0F28E01D0F29E0001C96B1200F5
:100AE8000001696B000EF2BE010E0001686F0DD0A7
:100AF8000001CB2B0E0ECB1908E10001CB6B0001D6
:100B0800CA6B010E0001696F0CD00001CB51FFECDC
:100B180016F00009EDE10001CB5112EC17F00009C5
:100B2800E7E000016951D8A412000001CB51090D7A
:100B3800700EF32400016A6F010EF4206B6F6AC017
:100B480064F06BC065F0000120EE08F06451D9260E
:100B58006551DA22DFA602D0010E01D0000E00098D
:100B680015E0000120EE03F06A51D9266B51DA2214
:100B7800DF500F015C6F000120EE02F06A51D926A8
:100B88006B51DA22DF500F015E6F2AD06AC064F021
:100B98006BC065F0000120EE08F06451D92665515C
:100BA800DA22DFA802D0010E01D0000E000913E0FE
:100BB800000120EE02F06A51D9266B51DA22DF508B
:100BC8000F015E6F000120EE03F06A51D9266B51C8
:100BD800DA22DF5003D0300E0F015E6F0F015C6F19
:100BE8000001C7510F015E27000120EE01F06A5194
:100BF800D9266B51DA22DF500F015F6F000120EE1A
:100C080004F06A51D9266B51DA22DF500001666F71
:100C1800D8906631666E000120EE05F06A51D9263B
:100C28006B51DA22DF500F015D6F608E010E0001FB
:100C3800CA6F0001646F0001CB51D3EC0BF0F29E38
:100C48006080000120EE04F06A51D9266B51DA2247
:100C5800DF500001666F676B090ED89066376737FB
:100C6800E82EFBD766C070FF67C071FF000168A15E
:100C780002D0F28E01D0F29E0001C96B1200000171
:100C8800876B886B00018A6B46D000018A51060D7C
:100C9800000E00017E6F010E7F6FF3507E27F45027
:100CA8007F230001C851020DF35000017E25D96E43
:100CB800F4507F21DA6EDECF80F0DDCF81F00001C5
:100CC8008A51020D540EF324D96E010EF420DA6E07
:100CD800DECF82F0DDCF83F000018051825D00011C
:100CE8007A6F00018151835900017B6F75EC16F012
:100CF8007AC085F07BC086F0000185510001875DD0
:100D0800000186510001885904E285C087F086C039
:100D180088F000018A2B0D0E00018A65B6D7000104
:100D2800885103E1650E875D5CE3B50E0001C825B7
:100D3800D96EDA6A000EDA22DF2A050EDF64050CA6
:100D48000001846BD40E0001C825D96EDA6A000E42
:100D5800DA22DF500001896F0001895103E00001A8
:100D6800890703D00F0E0001896F010E0001846FFF
:100D780000018B6B14D00001C85100018B190DE0E4
:100D8800D40E00018B25D96EDA6A000EDA22000132
:100D98008951DE1802E10001846B00018B2B020EE1
:100DA80000018B65E8D700018451D6E0D40E00011C
:100DB800C825D96EDA6A000EDA2289C0DFFF000181
:100DC8008B6B020E00018B6501D0020CB50E000181
:100DD8008B25D96EDA6A000EDA22DF6A00018B2BC6
:100DE800F0D70001885116E1320E875DD8B01200A5
:100DF800B50E0001C825D96EDA6A000EDA22DF5076
:100E0800D8B41200B50E0001C825D96EDA6A000EF2
:100E1800DA22DF061200000120EE0FF08D51D926EC
:100E28008E51DA22DF50000800018F6F000120EE9A
:100E38000AF08D51D9268E51DA22DE50800A00013F
:100E4800916F8F51800A915D27E2000120EE0BF02F
:100E58008D51D9268E51DA22DE2A000EDD2220EEAF
:100E68000BF08D51D9268E51DA22010EDB5003E1A9
:100E7800410EDE5C64E3000120EE0BF08D51D926B3
:100E88008E51DA22DE6ADD6A8DC0D9FF8EC0DAFFA4
:100E9800DF5046EC13F053D0000120EE0AF08D51DC
:100EA800D9268E51DA2210EE0FF08D51E1268E519F
:100EB800E222E650800A0001916FDE50800A915DBF
:100EC80035E2000120EE03F08D51D9268E51DA2249
:100ED800DF5009E08DC082F08EC083F023EC09F06A
:100EE800000901E01200000120EE02F08D51D92620
:100EF8008E51DA22020EDF6E20EE0BF08D51D926CC
:100F08008E51DA22000EDE6ADD6A01D818D005009B
:100F1800FA6E0001DF51FD6EE051FE6EFF6AFA5075
:100F28008DC0D9FF8EC0DAFFDF501200000120EE1D
:100F38000BF08D51D9268E51DA22DE6ADD6A000166
:100F480020EE0DF08D51D9268E51DA22DE2A000EC0
:100F5800DD2220EE0DF08D51D9268E51DA22400E79
:100F6800DE18DE10D8A41200000120EE0DF08D511D
:100F7800D9268E51DA22DE6ADD6A20EE03F08D5121
:100F8800D9268E51DA22DF5009E08DC082F08EC05A
:100F980083F023EC09F0000901E012008DC07AF01B
:100FA8008EC07BF043EF0AF0000185510001815D9E
:100FB800000186510001825957E3FE0E0001886F37
:100FC8008969885100018503F3CF8AF0F4CF8BF04B
:100FD8008603F35000018B27895100018503000126
:100FE800F3508B270001835100018A2700018451A7
:100FF80000018B230001815100018A2500018C6FBB
:101008000001825100018B2100018D6F87C088F09B
:10101800010E0001896F8A6B882B03D0D89089371D
:101028008A37882FFBD7000185510001835D0001B5
:101038007A6F000186510001845900017B6F8CC0D2
:101048007CF08DC07DF087C07EF03BEC11F0000194
:10105800895100017A5D00018C6F00018A510001FD
:101068007B5900018D6F41D0FE0E0001886F8969A0
:10107800885100018103F3CF8AF0F4CF8BF082030B
:10108800F35000018B278951000181030001F350BF
:101098008B270001835100018A2700018451000138
:1010A8008B230001855100018A2500018C6F000106
:1010B800865100018B2100018D6F000181510001D3
:1010C800855D00017A6F0001825100018659000197
:1010D8007B6F8CC07CF08DC07DF087C07EF03BECD0
:1010E80011F07AC08CF07BC08DF08CC081F08DC07F
:1010F80082F012000001936B000120EE05F0875189
:10110800D9268851DA22DF500001926F000120EEC3
:101118000CF08751D9268851DA22DECF8EF0DDCF48
:101128008FF087C07AF088C07BF08EC07CF08FC0CB
:101138007DF089C07EF08AC07FF0D2EC0FF07AC0D3
:1011480094F07BC095F0000195AF0CD0000194514C
:101158000008946F9551D8A0E82A0008956F010EF1
:101168000001936F000193052AE1000120EE09F0C8
:101178008751D9268851DA22DF5000018B6F8C6B9A
:101188000001945100018B5D8C51800A8D6F000124
:101198009551800A00018D5912E2000120EE08F0F5
:1011A8008751D9268851DA2292C0DFFF20EE09F054
:1011B8008751D9268851DA22000EDF6A2BD0000128
:1011C80093512DE1000120EE08F08751D92688516E
:1011D800DA22DF5000018B6F8C6B00019451000103
:1011E8008B5D8C51800A8D6F00019551800A00013A
:1011F8008D5915E2000120EE08F08751D926885153
:10120800DA22DF6A20EE09F08751D9268851DA22DE
:1012180092C0DFFF89C090F08AC091F00BD0000126
:1012280020EE0CF08751D9268851DA22DECF90F0D3
:10123800DDCF91F090C087F091C088F012000001D6
:1012480020EE03F08251D9268351DA22DF500001C3
:10125800886F000120EE0FF08251D9268351DA22DF
:10126800DF500001846F856B84BF850782C07AF0E8
:1012780083C07BF0EFEC13F00001845100017A5D2C
:101288000001866F0001855100017B590001876FBD
:10129800000E00018B6F020E8C6F00018C5102084A
:1012A80001E15FD061E382C0D9FF83C0DAFF8BC060
:1012B800E1FF8CC0E2FFDE50E6184BE0000120EEB3
:1012C80003F08B51D9268C51DA2200018851DE189F
:1012D80040E1000120EE02F08B51D9268C51DA2230
:1012E800020EDE1801E1010C000120EE0FF08B5117
:1012F800D9268C51DA22DF500001846F856B84BFB8
:1013080085078BC07AF08CC07BF0EFEC13F00001FE
:10131800845100017A5D0001896F00018551000147
:101328007B5900018A6F00018ABF13D08A5102E1FC
:1013380089050FE3000189510001865D8751800A04
:101348000001846F00018A51800A0001845901E27A
:10135800010C110E00018B27000E8C238C51020802
:1013680002E18B51DD089FE2000C00018B6F000148
:101378008B51090D700EF32400018C6F010EF420BF
:101388008D6F8CC07AF08DC07BF0B0EC17F000093F
:1013980069E0000120EE06F08C51D9268D51DA2241
:1013A800DECF85F0DDCF86F000018B51020D540EA3
:1013B800F324D96E010EF420DA6EDECF87F0DDCF8C
:1013C80088F000018551875D00017A6F0001865120
:1013D800885900017B6F75EC16F0000120EE04F0CF
:1013E8008C51D9268D51DA22DF500001896F8A6B22
:1013F800D89089378A37D89089378A3700017A5147
:101408000001895D00017B5100018A590DE28CC001
:101418007AF08DC07BF0000120EE08F07A51D926D1
:101428007B51DA22DF840CD08CC07AF08DC07BF03F
:10143800000120EE08F07A51D9267B51DA22DF9498
:101448008CC081F08DC082F01AEC15F00500FA6EA0
:101458000001E151FD6EE251FE6EFF6AFA50000193
:101468008B5112008CC07AF08DC07BF0000120EE09
:1014780008F07A51D9267B51DA22DF941200F2AEB5
:1014880045D0F29E000120EE06F07A51D9267B5114
:10149800DA22DECF7CF0DECF7DF0DECF7EF0DECF4D
:1014A8007FF0050E06D00001D8907F337E337D3360
:1014B8007C33E82EF8D7000120EE06F07A51D926C1
:1014C8007B51DA2200017C51DE5E7D51DE5A7E516D
:1014D800DE5A7F51DE5A000120EE04F07A51D926F7
:1014E8007B51DA22DECF7CF0DDCF7DF020EE06F0F6
:1014F8007A51D9267B51DA2200017C51DE267D51B2
:10150800DE22000EDE22DE22F28E000C000120EE2A
:1015180006F07A51D9267B51DA22DECF7CF0DECF75
:101528007DF0DECF7EF0DECF7FF0050E06D0000125
:10153800D8907F337E337D337C33E82EF8D7000193
:1015480020EE06F07A51D9267B51DA2200017C512F
:10155800DE5E7D51DE5A7E51DE5A7F51DE5A000131
:1015680020EE04F07A51D9267B51DA22DECF7CF0C6
:10157800DDCF7DF020EE06F07A51D9267B51DA22B4
:1015880000017C51DE267D51DE22000EDE22DE22A5
:10159800000C00017C6F46D00F0110910F011191D2
:1015A80060D00F0110930F0111935BD00F011095BC
:1015B8000F01119556D00F0110970F01119751D0B7
:1015C8000F0110990F0111994CD00F01109B0F01B9
:1015D800119B47D00F01109D0F01119D42D00F01A3
:1015E800109F0F01119F3DD00F0118910F01199104
:1015F80038D00F0118930F01199333D00F011895A4
:101608000F0119952ED00F0118970F01199729D09E
:101618000F0118990F01199924D00F01189B0F0178
:10162800199B1FD000017C51B7E0010ABAE0030AF8
:10163800BDE0010AC0E0070AC3E0010AC6E0030AE8
:10164800C9E0010ACCE00F0ACFE0010AD2E0030AA0
:10165800D5E0010AD8E0070ADBE0010AD8A4FF0CAC
:10166800DCD700017C5125EC17F000017C5149ECD6
:1016780017F000017C51090D700EF32400017A6FF8
:10168800010EF4207B6F000120EE08F07A51D92674
:101698007B51DA22DF92000C00017B6F62D00001DF
:1016A8007AB102D0889001D08880120000017AB106
:1016B80002D0889201D08882120000017AB102D04B
:1016C800889401D08884120000017AB102D08896EB
:1016D80001D08886120000017AB102D0889801D022
:1016E8008888120000017AB102D0889A01D0888ACD
:1016F800120000017AB102D0889C01D0888C1200B7
:1017080000017AB102D0889E01D0888E12000001B3
:101718007AB102D0899001D08980120000017AB193
:1017280002D0899201D08982120000017AB102D0D8
:10173800899401D08984120000017AB102D0899677
:1017480001D08986120000017AB102D0899801D0AF
:101758008988120000017AB102D0899A01D0898A59
:10176800120000017B519BE0010AA0E0030AA5E0FA
:10177800010AAAE0070AAFE0010AB4E0030AB9E0E7
:10178800010ABEE00F0AC3E0010AC8E0030ACDE07F
:10179800010AD2E0070AD7E0010ADCE012000001E2
:1017A800656F62D0000164B102D0889001D0888052
:1017B8001200000164B102D0889201D08882120020
:1017C800000164B102D0889401D08884120000011D
:1017D80064B102D0889601D088861200000164B1F5
:1017E80002D0889801D088881200000164B102D024
:1017F800889A01D0888A1200000164B102D0889CBE
:1018080001D0888C1200000164B102D0889E01D0FA
:10181800888E1200000164B102D0899001D08980BD
:101828001200000164B102D0899201D089821200AD
:10183800000164B102D0899401D0898412000001AA
:1018480064B102D0899601D089861200000164B182
:1018580002D0899801D089881200000164B102D0B1
:10186800899A01D0898A1200000165519BE0010A1A
:10187800A0E0030AA5E0010AAAE0070AAFE0010A0E
:10188800B4E0030AB9E0010ABEE00F0AC3E0010AA6
:10189800C8E0030ACDE0010AD2E0070AD7E0010A4E
:1018A800DCE01200000120EE06F07A51D9267B51C7
:1018B800DA22DECF7CF0DECF7DF0DECF7EF0DECF29
:1018C8007FF0050E06D00001D8907F337E337D333C
:1018D8007C33E82EF8D7000120EE04F07A51D9269F
:1018E8007B51DA22DECF80F0DDCF81F0000180511C
:1018F800826F8151836F846B856B7C51825D00019F
:10190800866F00017D5183590001876F00017E5168
:1019180084590001886F00017F5185590001896F42
:10192800000120EE10F07A51D9267B51DA22DF50DF
:1019380000017C6F7C297D6F06D0000189358933D1
:1019480088338733863300017D2FF7D7000189BF9D
:101958000DD089518811871103E1800E865D06E359
:101968007F0E0001866F876B886B896B000189AFDA
:101978000FD0800E865DFF0E8759FF0E8859FF0E27
:10198800895906E2800E0001866F8769886989692E
:10199800000120EE0AF07A51D9267B51DA2286C05E
:1019A800DFFF1200000120EE0AF08751D926885186
:1019B800DA22DECF93F0DDCF94F087C07AF088C0CA
:1019C8007BF093C07CF094C07DF089C07EF08AC023
:1019D8007FF0D2EC0FF07AC095F07BC096F0000152
:1019E8009505961105E00001952907E1962905E17D
:1019F80093C08FF094C090F04BD0000196AF1ED0EA
:101A0800000195510008956F9651D8A0E82A000862
:101A1800966F95C091F096C092F00001D8909233DD
:101A280091330001915100080001956F0001925116
:101A3800D8A0E82A00080001966F0CD095C091F054
:101A480096C092F00001D8909233913391C095F0EE
:101A580092C096F0000193510001952500018F6F07
:101A680000019451000196210001906F00018B69DB
:101A78008C69C0C08DF0C1C08EF08B518D278C5100
:101A88008E238D5100018F1700018E510001901790
:101A98008FC087F090C088F01200000120EE0BF094
:101AA8008D51D9268E51DA22E80EDE5C030EDE58FF
:101AB80016E38DC0D9FF8EC0DAFFDF5046EC13F075
:101AC8000500FA6E0001DD51FD6EDE51FE6EFF6A03
:101AD800FA508DC0D9FF8EC0DAFFDF501200000126
:101AE80020EE0FF08D51D9268E51DA22DF500001F9
:101AF8008F6F010E906F8F358F33902FFCD70001B9
:101B080020EE0FF08D51D9268E51DA22DF500001D8
:101B1800916F8F51915D926F000120EE0AF08D5107
:101B2800D9268E51DA22DE50800A0001946F925134
:101B3800800A945DD8B01200000120EE02F08D51A9
:101B4800D9268E51DA22010EDF6E20EE0BF08D5170
:101B5800D9268E51DA22DE6ADD6A20EE0DF08D512B
:101B6800D9268E51DA22DE68FB0EDD6E0500FA6E8C
:101B78000001DD51FD6EDE51FE6EFF6AFA508DC028
:101B8800D9FF8EC0DAFFDF5012000001C4A139D09E
:101B98000001B1A103D0849C899C01D0898C0001EB
:101BA800B1A303D0849E899E01D0898E0001B1A57E
:101BB80003D085908A9001D08A800001B1AD03D00E
:101BC80085928A9201D08A820001B1AF03D08594B0
:101BD8008A9401D08A840001B2A103D0859A8A9A96
:101BE80001D08A8A0001B2AB03D0859C8A9C01D0BF
:101BF8008A8C0001B2AF03D0859E8A9E12008A8E1D
:101C080012000001B1A703D0848C899C01D0898C73
:101C18000001B1A903D0848E899E01D0898E00016C
:101C2800B1AB03D085808A9001D08A800001B2A32D
:101C380003D085828A9201D08A820001B2A503D09E
:101C480085848A9401D08A840001B2A703D0858A4A
:101C58008A9A01D08A8A0001B2A903D0858C8A9C0D
:101C680001D08A8C0001B2AD03D0858E8A9E120005
:101C78008A8E1200000120EE02F07B51D9267C5199
:101C8800DA22DF5000017E6F0001C56B00017E5132
:101C98000001C61943E1000120EE01F07B51D9266D
:101CA8007C51DA22DE0436E1000120EE03F07B519C
:101CB800D9267C51DA22DF5000017E2500017D6F94
:101CC8007D055BEC17F00001BE6FBF6BBEBFBF07A1
:101CD80000017E295BEC17F00001BC6FBD6BBCBF37
:101CE800BD070001BDBF23D0BD5102E1BC051FE304
:101CF8000001BE510001BC5DBD51800A00017D6F2D
:101D08000001BF51800A00017D5911E2010E000156
:101D1800C56F0DD00001BE6BBF6B09D00001C605B1
:101D28005BEC17F00001BE6FBF6BBEBFBF070001C1
:101D3800BFAF03D00001BE6BBF6BBEC07BF0BFC09E
:101D48007CF01200000120EE0BF08D51D9268E5147
:101D5800DA22010EDB500AE1090EDE5C07E28DC0D3
:101D68007DF08EC07EF0BAEC13F006D08DC07AF00C
:101D78008EC07BF043EC0AF0000120EE0BF08D5191
:101D8800D9268E51DA22DE2A000EDD22000120EE4D
:101D98000BF08D51D9268E51DA22010EDB5004E169
:101DA800100EDE5CD8A01200000120EE06F08D5166
:101DB800D9268E51DA22DECF8FF0DECF90F0DECF3B
:101DC80091F0DECF92F0050E06D00001D890923344
:101DD800913390338F33E82EF8D7000120EE04F0CA
:101DE8008D51D9268E51DA228FC0DEFF90C0DDFFDB
:101DF80020EE02F08D51D9268E51DA22010EDF6EC7
:101E080020EE0BF08D51D9268E51DA22DE6ADD6A7A
:101E1800000C0001976F00019751110D000EF3247B
:101E28000001986F020EF420996F000120EE01F076
:101E38009851D9269951DA22DF50D9EC16F00009C9
:101E4800D8B41200000120EE01F09851D92699511A
:101E5800DA22DF50ECEC16F00009D8B4120098C072
:101E680081F099C082F07DEC17F098C07AF099C0A3
:101E78007BF056EC0CF0000120EE02F09851D926C8
:101E88009951DA22020EDF6407D098C0D9FF99C0B1
:101E9800DAFFDF5046EC13F098C08DF099C08EF051
:101EA800000120EE02F09851D9269951DA22DF502C
:101EB800020DCE0EF324D96E000EF420DA6EDECFBA
:101EC80095F0DDCF96F00500FA6E00019551FD6E94
:101ED8009651FE6EFF6AFA5012000001846B856B02
:101EE800000120EE02F07B51D9267C51DA22DF5026
:101EF8000001C66F000120EE02F07B51D9267C510B
:101F0800DA22DF500001866F1FD0000186515BEC9A
:101F180017F00001826F836B82BF83070001825133
:101F28000001845D8551800A00017D6F00018351A5
:101F3800800A00017D5906E286C0C6F082C084F09E
:101F480083C085F00001862B000120EE02F07B5152
:101F5800D9267C51DA22DF5000017D6F7E6B0001AB
:101F680020EE03F07B51D9267C51DA22DF500001A4
:101F78007D27000E7E230001865100017F6F806B54
:101F88007D517F5D8051800A816F7E51800A815921
:101F9800BCE384C07BF085C07CF01200D8900001BF
:101FA800C1310001806F0001C0310001836F80C022
:101FB80084F000017C5100017E5D0001856F000105
:101FC8007D5100017F590001866F000120EE01F06C
:101FD8007A51D9267B51DA22DE0438E1000186AF36
:101FE8001FD00001806B816B000183510001805F6D
:101FF800000184510001815B80510001855D86519B
:10200800800A0001826F8151800A82591FE2000113
:10201800C051000185270001C1510001862316D057
:10202800000185510001835D8451800A0001806FA1
:1020380000018651800A0001805908E20001C05160
:102048000001855F0001C1510001865B85C07AF0FF
:1020580086C07BF01200000120EE02F07D51D926E7
:102068007E51DA22DF503CE0000120EE04F07D5181
:10207800D9267E51DA22DECF7FF0DDCF80F0000155
:10208800D89080337F33D89080337F33000120EE9F
:1020980004F07D51D9267E51DA2200017F51DE5E9F
:1020A8008051DD5A000120EE01F07D51D9267E5184
:1020B800DA22DF5030EC16F00001D8907B337A3307
:1020C800D8907B337A33000120EE04F07D51D92675
:1020D8007E51DA2200017A51DE267B51DD22120080
:1020E800000120EE01F07D51D9267E51DA22DF5021
:1020F80030EC16F0000120EE04F07D51D9267E5117
:10210800DA2200017AC0DEFF7BC0DDFF1200000189
:10211800B16BF00EB217AD5100017E6F0F0E0001CA
:10212800AE1500017F6F00010001806B0001000106
:10213800816B7E510001B11300017F510001B21380
:10214800000180510001B313000181510001B41353
:102158001ED00001B299B29BB29DB29F120000013D
:10216800B289B29BB29DB29F12000001B289B28BB4
:10217800B29DB29F12000001B289B28BB28DB29F9C
:1021880012000001B289B28BB28DB28F1200330EE9
:1021980000017A6F0001B051FDEC15F000017E6F6F
:1021A8007F6B7F51D8A412007E51D3E0010AD7E09B
:1021B800030ADBE0010ADFE0070AE3E0010AE1E0E5
:1021C800120087C07BF088C07CF071EC0FF07BC0F8
:1021D800BAF07CC0BBF087C07BF088C07CF08FEC85
:1021E80011F07BC0BCF07CC0BDF087C07BF088C01C
:1021F8007CF03EEC0EF07BC0BEF07CC0BFF000016E
:10220800BC510001BE5DBF51800A0001896F000109
:10221800BD51800A0001895909E20001BC51000141
:10222800BA2500018B6F0001BD5108D00001BE51D5
:102238000001BA2500018B6F0001BF510001BB21CD
:1022480000018C6F000120EE06F08751D9268851D5
:10225800DA22DE5000018B5DDE508C5903E200016A
:102268008B6B8C6B8BC087F08CC088F012000001E0
:102278007F6B806B00017E2B00017C517D1107E193
:102288003CD000017E070001D8907A377B370001E7
:102298007BBF0AD000017E5107E0F3D700017E2BF7
:1022A8000001D8907C377D3700017DAFF7D71ED06D
:1022B8000001D8907F37803700017E0700017C51EC
:1022C80000017A5D00017D5100017B590BE300019B
:1022D8007C5100017A5F00017D5100017B5B0001A8
:1022E8007F4B802B0001D8907D337C3300017E51D9
:1022F80007E0000180AFDCD703D000017F69806967
:1023080000017E5103E000017F6980697FC07AF097
:1023180080C07BF01200000120EE02F07B51D9262C
:102328007C51DA22DF500001836F0001C6510001A1
:102338007D6F7E6B7F698069000120EE03F07B5121
:10234800D9267C51DA22DF5083C081F00001826BEC
:102358008127000E82237F518127805182237D515E
:10236800811915E17E51821912E1000120EE01F078
:102378007B51D9267C51DA22DE0405E10001835124
:102388005BEC17F008D00001BC6BBD6B09D00001F5
:10239800C6295BEC17F00001BC6FBD6BBCBFBD0765
:1023A8000001BDAF03D00001BC6BBD6BBCC07BF0AE
:1023B800BDC07CF012000E01CB930001646BCB51C1
:1023C800D3EC0BF00001C951D8B402D0609E3DD0C7
:1023D800609E0001CB51090D700EF3246F6F010E42
:1023E800F420706F6FC064F070C065F0000120EEDB
:1023F80008F06451D9266551DA22DFA602D0010E11
:1024080001D0000E0009D8A407D06FC068F070C0D2
:1024180069F0CCEC03F00CD06FC064F070C065F0CC
:10242800000120EE08F06451D9266551DA22DF82D6
:102438000001CB51020D540EF324D96E010EF42085
:10244800DA6E72CFDEFF73CFDDFF74EC05F0120099
:1024580000017A6F00017A51D8A4120000017A5164
:10246800110DEE0EF32400017B6F010EF4207C6F3A
:10247800000120EE10F07B51D9267C51DA22DF6A68
:10248800000120EE08F07B51D9267C51DA22DF6A60
:10249800000120EE05F07B51D9267C51DA2210EE9E
:1024A80009F07B51E1267C51E222DFCFE7FF0001F2
:1024B80020EE0AF07B51D9267C51DA22DE6ADD6AE9
:1024C800000120EE0CF07B51D9267C51DA22DE6A1D
:1024D800DD6A000120EE0EF07B51D9267C51DA220C
:1024E800DE6ADD6A000C0001606F39D0010E000160
:1024F800C26F010C020E0001C26F020CE3C0C3F0F0
:1025080019D0AD0E0001C325D96EDA6A000EDA22A1
:10251800E3C0DFFF0001C32B070E0001C3650AD02B
:102528000001C36B07D00001C251EBE0010AE6E0ED
:10253800030AE7E10001C26B1200AD0E0001C325DA
:10254800D96EDA6A000EDA22DF50926E0001C32BD0
:10255800070E0001C365070C0001C36B12000001E0
:102568006051C4E0010AE9E0030ADDE0010AD8B4D9
:102578001200070ABFE0120000C38EF001C38FF0FB
:1025880045EC00F08EC006F38FC007F3030120EE80
:1025980010F00051D9260151DA22DF50030B020A4C
:1025A80005E006C304F307C305F30ED000C387F0A4
:1025B80001C388F006C389F007C38AF0D6EC0CF093
:1025C80087C004F388C005F3030120EE0AF0005128
:1025D800D9260151DA2206C3DEFF07C3DDFF00C397
:1025E80087F001C388F004C389F005C38AF07EEC44
:1025F80008F087C002F388C003F302C300F303C3E3
:1026080001F31200836A846A400E856E88683F0E63
:10261800896E180E8A6E0F01216B3F0E0F01196F1C
:102628000F0111690F012D6B0F01186B0F01106B52
:10263800180E0F01206F0F010F6B0F01176B0F01A1
:102648001F6B0F010E690F0116690F011E69550EE8
:102658000E01A06FAA0EA06F0E01A091130E0E011D
:10266800B76F0D0E0E01FA6F0E0E0E01FB6F140EF2
:102678000E01B86F550E0E01A06FAA0EA06F0E01C5
:10268800A081AA0C00017B6F00017B51110D000E87
:10269800F32400017C6F020EF4207D6F000120EE10
:1026A80002F07C51D9267D51DA22DF6A000120EE42
:1026B80006F07C51D9267D51DA22DE6ADE6ADE6AAE
:1026C800DD6A000120EE0BF07C51D9267D51DA221B
:1026D800DE6ADD6A000120EE0DF07C51D9267D51BD
:1026E800DA22DE6ADD6A000120EE01F07C51D9268B
:1026F8007D51DA22DF5049EF17F0818E819CB00EB0
:10270800F66E300EF76E000EF86E01EEEEF010EE7B
:1027180011F00900F5CFEEFFE550E150FAE1700E37
:10272800F66E300EF76E000EF86E00EECEF010EE7C
:1027380016F00900F5CFEEFFE550E150FAE102EEA0
:1027480000F0EE0EEE6AE806FDE101EE00F0EE0E96
:10275800EE6AE806FDE100EE9FF02F0EEE6AE8064D
:10276800FDE10190019200014BEF14F0000120EE11
:1027780001F07D51D9267E51DA22DF5030EC16F077
:1027880000017A5100017F6F00017B510001806FC9
:10279800816B826B000120EE06F07D51D9267E51B7
:1027A800DA227FC0DEFF80C0DEFF81C0DEFF82C08C
:1027B800DEFF000120EE06F07D51D9267E51DA2297
:1027C800040ED890DE36DE36DE36DD36D906D9067A
:1027D800E82EF7D71200000120EE06F07A51D9262C
:1027E8007B51DA22DECF7CF0DECF7DF0DECF7EF0CB
:1027F800DECF7FF0050E06D00001D8907F337E3300
:102808007D337C33E82EF8D7000120EE04F07A51AE
:10281800D9267B51DA22DECF80F0DDCF81F00001AE
:102828007C51805D00017A6F00017D518159000162
:102838007B6F1200550E0001616F0E01CD9192CF92
:1028480061F0020E0001B96F000EB86F95A40BD0AD
:1028580095BA97AC04D0030E77EC12F016D0010E9F
:1028680077EC12F012D095BA0BD00001615104E157
:10287800040E77EC12F009D0000E77EC12F005D0B8
:1028880061C0E3F0020E77EC12F09688120041EC7A
:1028980015F0BFEC17F00001B16BB26BB36BB46B02
:1028A8000001AD6BAE6BAF6BB06BF28EF28CF28C3D
:1028B800400E00017A6F290E7B6F70EC18F0920EB3
:1028C80000017A6F290E7B6F75EC18F0560E000127
:1028D8007A6F300E7B6F66EC18F0040018EC16F077
:1028E8008BEC10F0FAD7000120EE02F07A51D926CD
:1028F8007B51DA22020EDE18D8A41200000120EE65
:102908000BF07A51D9267B51DA22DE2A000EDD221D
:1029180020EE0BF07A51D9267B51DA22DE50DE10F8
:10292800D8A41200000120EE0BF07A51D9267B5171
:10293800DA22DE68DD68FF0C0001816F81C07AF061
:10294800010E00017B6F7C6B7A2B03D0D8907B370C
:102958007C377A2FFBD77BC07DF07CC07EF0000EE1
:1029680000017EBFFF0E7F6F806F7D510001AD13A8
:1029780000017E510001AE1300017F510001AF1329
:10298800000180510001B01312000001816F81C065
:102998007AF0010E00017B6F7C6B7A2B03D0D89004
:1029A8007B377C377A2FFBD700017B1D7D6F7C1D21
:1029B8007E6F7F6B7EBF7F077F51806F7D510001E7
:1029C800AD1700017E510001AE1700017F510001D3
:1029D800AF17000180510001B01712007CC082F0CF
:1029E8007DC083F07AC080F07BC081F012D082C0B5
:1029F800F6FF83C0F7FFF86A0800F5CF84F0824B32
:102A0800832B80C0D9FF81C0DAFF84C0DFFF804BF1
:102A1800812B00017E07D8A07F077E29E8E17F2966
:102A2800E6E17AC07AF07BC07BF0120081C0D9FF62
:102A380082C0DAFFDF50CDEC02F07AC083F07BC0B1
:102A480084F0F2AE0ED0F29E000120EE06F0815125
:102A5800D9268251DA2283C0DEFF84C0DDFFF28EE0
:102A68001200000120EE06F08151D9268251DA22A7
:102A780083C0DEFF84C0DDFF1200D750400E816E98
:102A8800F65000017A6FF7507B6FF8507C6F7D6BC2
:102A9800FC0EF66EF7683F0EF86E0900F550090057
:102AA800F5500900F5500800F550816A7AC0F6FF24
:102AB8007BC0F7FF7CC0F8FF800E816E800C700E23
:102AC80000017C6F010E7D6F14D001E212007CC002
:102AD8007AF07DC07BF0000120EE08F07A51D9260B
:102AE8007B51DA22DF92090E00017C27000E7D233C
:102AF80000017D510108E9E17C51E508E6D7700E37
:102B080000017A6F010E7B6F810E00017C6F3F0E12
:102B18007D6F000E00017F6F7E0E7E6FF2EC14F069
:102B28000001856B06D000018551CDEC0AF000014B
:102B3800852B0D0E00018565F6D70D0C000E0001E2
:102B48007A6F020E7B6F930E00017C6F3E0E7D6FD5
:102B5800000E00017F6FEE0E7E6FF2EC14F00001A4
:102B6800856B06D00001855146EC13F00001852BDA
:102B78000D0E00018565F6D70D0C00018F6B15D081
:102B880000018F51D9EC16F000090DE100018F51B9
:102B9800C6EC16F0000907E07AEC18F00009D8B482
:102BA800A5EC04F0000C00018F2B0D0E00018F65C1
:102BB800E7D76CEC17F0010C050E0F01576F0F01EA
:102BC800586B0F015D6B6A6A6B6A6C6A6D6A686A3A
:102BD800696A410E0F01596F8B0E0F015A6F0F0E64
:102BE8000F015B6FC40E606E0E01CB930E01C383A1
:102BF800C40C00017B6F7D6B7A5114E0010E7C6F71
:102C080003D0D8907A377C2B7AAFFBD7D8907D3712
:102C18007A517B5D03E37A517B5F7D81D8907A336B
:102C28007C2FF4D77D511200010E0001CC6FCC51DE
:102C380012E0C1EC15F0000901E1000CDBEC17F023
:102C48001EEC18F06BEC18F00001CC6F63EC15F07B
:102C58007FEC18F0010C000C00017C6F0E0E0001D7
:102C68007C610ED000017C51090D760EF324D96EDB
:102C7800010EF420DA6EDECF7AF0DDCF7BF01200A1
:102C880000017A6B7B6B120000017C6F00017C51A4
:102C98000EE100017C51110DFA0EF324D96E010EDC
:102CA800F420DA6EDECF7AF0DDCF7BF0120000017F
:102CB8007A6B7B6B120000017E6B0ED000017E5197
:102CC800110D000EF32400017A6F020EF4207B6FC1
:102CD80077EC14F000017E2B0D0E00017E65EED717
:102CE8000D0C00017BAF0DD07AC07CF07BC07DF06D
:102CF8007C1F7D1F7C4B7D2B7CC07AF07DC07BF0D8
:102D080012007AC07AF07BC07BF01200000165AF38
:102D18000DD064C066F065C067F0661F671F664B1C
:102D2800672B66C064F067C065F0120064C064F089
:102D380065C065F0120000017B6F0E0E00017B611B
:102D4800000C00017B51110D020EF324D96E020E06
:102D5800F420DA6E020EDE18D8B4010C000C440E12
:102D6800D66EBA0ED46ED36A0E01CA9B0E01C28B00
:102D7800D20E00017A6F2F0E7B6F61EC18F0800E77
:102D8800D56E800C00017A6F0E0E00017A61000C7E
:102D980000017A51090D780EF324D96E010EF42042
:102DA800DA6E0101DFB0010C000C00017A6F0E0E23
:102DB80000017A61000C00017A51090D780EF324A4
:102DC800D96E010EF420DA6E0101DFB2010C000C9D
:102DD80000017A6F0E0E00017A61000C00017A5131
:102DE800090D780EF324D96E010EF420DA6E010174
:102DF800DFB6010C000C0001646F0E0E0001646167
:102E0800000C00016451090D780EF324D96E010EEF
:102E1800F420DA6E0101DFB2010C000C0001646FCE
:102E28000E0E00016461000C00016451090D780E5A
:102E3800F324D96E010EF420DA6E0101DFB0010C23
:102E4800000C00017A6F0E0E00017A610E0C000171
:102E58007A51090D780EF324D96E010EF420DA6E3A
:102E68000101DF8012000001C82B020EC86502D0E4
:102E78000001C86BD40E0001C825D96EDA6A000EAD
:102E8800DA22DF500001C76F120000017A6F0E0EC0
:102E980000017A610E0C00017A51090D780EF324B5
:102EA800D96E010EF420DA6E0101DF9612000001DE
:102EB8007A6F0E0E00017A61000C00017A51110D33
:102EC8000A0EF324D96E020EF420DA6EDF501200D7
:102ED80043EC06F000018E6B06D000018E51B9EC70
:102EE80009F000018E2B0D0E00018E65F6D737EF25
:102EF80017F0F2AE09D0F29E81C07DF082C07EF05C
:102F08002FEC10F0F28E120081C07DF082C07EF0AE
:102F18002FEF10F00E01CA9B0001E451E511D8B45F
:102F280012000500FA6E0001E451FD6EE551FE6ED7
:102F3800FF6AFA501200D9CF62F0DACF63F00E01BF
:102F4800C5A104D00E01CDB11EEC14F063C0DAFFA8
:102F580062C0D9FF0192110000017A517B110AE089
:102F6800000120EE08F07A51D9267B51DA22DFB031
:102F7800010C000C000C43EC18F0F7EC17F006EC11
:102F880013F004EC18F0CDEC17F0B3EC16F04EEF9C
:102F980018F0956A260E966E810E976E986A200E26
:102FA800946E936E0E01CD910E01C581200C000127
:102FB8009A6B06D000019A510DEC0FF000019A2B84
:102FC8000D0E00019A65F6D70D0C0001C42B000107
:102FD800B851B91102E1C9EF0DF00001B807D8A046
:102FE800B907C9EF0DF00E01E16B0E01E26B0E019E
:102FF800E36B0E01E46B0E01E56B0E01E66B12004C
:10300800600E0E01D86F0E01DA6B0E01DC6B040E38
:103018000E01DE6F0E01DD6B120000017D6B06D024
:1030280000017D512CEC12F000017D2B00017D5137
:10303800F7E012000101FF6B06D00101FF5190EC8F
:1030480001F00101FF2B0101FF51F7E0120000011F
:103058007D6F00017D5148EC16F07AC07EF07BC090
:103068007FF07EC0B0F012004C1D1E0EA21A0007A1
:103078000F02310231023106310631043155F28A2C
:103088000E01BD810E01BA9B0E01BB930E01BD99C5
:10309800BD9B120083EC15F0A2EC15F011EC18F0B2
:1030A80063EC15F07DEF18F000000C02800F64004F
:0930B8000000000000000000000F
:1030C2007AC0E4F07BC0E5F012007AC0DBF07BC08E
:1030D200DCF0120000017A6B00017A5112007AC012
:1030E200DFF07BC0E0F012007AC0DDF07BC0DEF0E2
:1030F20012000001CA511200E0EF15F05FEF16F066
:0631020012001200120091
:103E92000000000000000000000000000000000020
:103EA20064010101000000000000000000000000A9
:103EB2000064010202000000000000000000000097
:103EC2000000640103030000000000000000000085
:103ED2000000006401040400000000000000000073
:103EE2000000000064010505000000000000000061
:103EF200000000000064010606000000000000004F
:103F0200000000000000640107070000000000003C
:103F1200000000000000006401080800000000002A
:103F22000000000000000000640109090000000018
:103F320000000000000000000064010A0A00000006
:103F42000000000000000000000064010B0B0000F4
:103F5200000000000000000000000064010C0C00E2
:103F620001000000000000000000000064010D0DCF
:103F720000010000000000000000000000640100D9
:103F8200000A05200000000001010A0520000000CF
:103F92000002020A05200000000003030A052000B7
:103FA20000000004040A05200000000005050A05BF
:103FB200200000000006060A052000000000070796
:103FC2000A05200000000008080A05200000000081
:103FD20009090A0520000000000A0A0A052000005B
:103FE20000000B0B0A0520000000000C0C0A052043
:0E3FF200000000000D0D0A0520000000000078
:020000040020DA
:10000000FF0FFF0FFF0FFF0FFF0FFF0FFF0FFF0F80
:020000040030CA
:0C0000008CFFFFF7E7C7FFFFFFFFFFFFCB
:00000001FF
