:0400000065EF00F0B8
:0600080001821CEF1AF05A
:100018000180D8CF71F0E8CF72F0E0CF73F0FACF5B
:1000280074F0FBCF75F0D9CF76F0DACF77F0F3CF55
:1000380078F0F4CF79F00E01C2AB06D00E01CAAB4E
:1000480003D00BEC1AF029D00E01C3A306D00E0181
:10005800CBA303D025EC13F020D00E01C5A90CD0FA
:100068000E01CDA909D001D818D00500FA6E0001FB
:10007800E351FD6EE4510DD00E01C5AB0ED00E015B
:10008800CDBB01D80AD00500FA6E0001E151FD6E22
:10009800E251FE6EFF6AFA50120079C0F4FF78C090
:1000A800F3FF77C0DAFF76C0D9FF75C0FBFF74C0D5
:1000B800FAFF73C0E0FF72C0E8FF71C0D8FF01907B
:1000C800100014EF15F0880E0001936F000E946F66
:1000D8007FD1250E00019B1905E000019B51E1EC41
:1000E8001AF076D10001996B9A6B0001966B86C065
:1000F800F6FF87C0F7FFF86A0800F5504CEC1AF0D5
:1001080000013CE30001996B9A6B99C07AF09AC0A0
:100118007BF0000E00017D6F0A0E7C6F1CEC19F05D
:100128007AC099F07BC09AF0D00E00018E6F8F696B
:1001380086C0F6FF87C0F7FFF86A0800F550906F91
:10014800916B8E5190278F519123905100019927DF
:100158000001915100019A230001864B872B86C02C
:10016800F6FF87C0F7FFF86A0800F5504CEC1AF064
:10017800000104E3CAD70001968F16D086C0F6FFA7
:1001880087C0F7FF0001864B872BF86A0800F5CF78
:100198009BF000019B5101E12AD1640A05E00D0A98
:1001A80003E0110AE8E014D1000196BF19D093C00A
:1001B800D9FF94C0DAFFDECF97F0DDCF98F0020EBA
:1001C80000019327000E9423000198AF53D0030E2B
:1001D800000196130001976D981FD8B0982B4AD04C
:1001E80093C0D9FF94C0DAFFDECF97F0DDCF98F047
:1001F800020E00019327000E94233CD0010E00014B
:100208009B6F050E00019B193BE000019B51020DFD
:10021800430EF324F66E3E0EF420F76EF86A000ED5
:10022800F8220900F5500001975D0900F55098592A
:1002380027E300019B2BE5D7010E00019B6F040EFD
:1002480000019B191DE000019B51020D4D0EF32486
:10025800F66E3E0EF420F76EF86A000EF8220900DA
:10026800F5500001975D0900F550985909E3000120
:100278009B2BE5D700019651800BC0E0800ADCE09B
:10028800000199519A110AE096C08EF0030E000100
:100298008E1704E000019907D8A09A07800E000184
:1002A8009BBF7F0E00018E6F0001995100019B5D7D
:1002B80000019A51800A00018E590BE200019B51FE
:1002C8000001995F000E00019BBFFF0E00019A5BC1
:1002D80003D00001996B9A6B000199519A110AE0B9
:1002E800200EE1EC1AF000019907D8A09A0799515D
:1002F8009A11F6E196C08EF0030E00018E1703E006
:100308002D0EE1EC1AF09BC095F05ED000019551DE
:10031800020D430EF324F66E3E0EF420F76EF86AD3
:10032800000EF8220900F5CF7CF00A00F5CF7DF029
:1003380097C07AF098C07BF0F5EC16F07AC081F09F
:100348007BC082F0000E0001846F0A0E836F82EC7E
:1003580017F000018151300F00019B6F31D097C019
:100368007AF098C07BF000019551020D4D0EF324F0
:10037800F66E3E0EF420F76EF86A000EF8220900B9
:10038800F5CF7CF00A00F5CF7DF0F5EC16F0000112
:100398007A510F0B0001926FC10E00019225F66E83
:1003A800F76A3F0EF722F86A000EF8220800F5CF28
:1003B8009BF006D000019651800BA8E0800ACFE0A0
:1003C80000019B51E1EC1AF0000195079529F2E133
:1003D80086C0F6FF87C0F7FF0001864B872BF86AB7
:1003E8000800F5CF9BF000019B5101E072D6000197
:1003F800866B876B1200000120EE02F08E51D92621
:100408008F51DA22DF500001956F000120EE03F0D2
:100418008E51D9268F51DA22DF5000019C6F100EC1
:1004280000019C6106D00C0E00019B6F0001986BC7
:1004380006D0080E00019B6F040E0001986F0001A2
:10044800C0050FE19BC090F000019C510001916F25
:10045800926B902B03D0D89091379237902FFBD77F
:1004680012D09BC090F000019551C1C091F00001DD
:10047800926B915F000E925B902B03D0D8909137CE
:100488009237902FFBD791C09DF092C09EF0B4C0D8
:1004980081F0B5C082F0B0C083F0B1C084F0B2C0C2
:1004A80085F0B3C086F09BC087F093EC09F000019B
:1004B800815100019D270001825100019E23020EF7
:1004C80000019C652AD0000120EE01F08E51D9264A
:1004D8008F51DA22DE040DE19DC07AF09EC07BF0D8
:1004E8009CC07CF000017D6B98C07EF081EC12F01E
:1004F80010D09DC07AF09EC07BF0FF0E00019C25B5
:1005080000017C6F7D6BFF0E7D2398C07EF081EC2F
:1005180012F07AC09DF07BC09EF000019D05100E80
:100528009E5904E3100E00019E6F9D6B000120EEA2
:1005380001F08E51D9268F51DA22DF505FE1000198
:1005480020EE04F08E51D9268F51DA22DF500001B7
:10055800906F0F0E901752E00001996B9A6B000193
:1005680020EE04F08E51D9268F51DA22DF500F0B7E
:100578000001966F976B09D000019607D8A09707DE
:10058800280E00019927000E9A2300019651971111
:10059800F3E10001995100019D5D00019A510001AC
:1005A8009E5904E200019D6B9E6B08D00001995191
:1005B80000019D5F00019A5100019E5B9DC07AF089
:1005C8009EC07BF099C090F09AC091F0D89000013D
:1005D800903791379051000800017C6F00019151CC
:1005E800D8A0E82A100800017D6F0C0E00017E6F6C
:1005F80081EC12F07AC09DF07BC09EF00001C851DA
:100608000C080001906F9029916F04D0D8900001D8
:100618009E339D330001912FF9D7000190699169AC
:10062800C8C092F0010E936F946B922B03D0D890B0
:1006380093379437922FFBD700019051932791510C
:10064800942300019D510001935D00019E5100011A
:10065800945917E2C8C090F0010E0001916F926B97
:10066800902B03D0D89091379237902FFBD7FF0E5D
:100678000001912500019D6FFF0E000192210001EC
:100688009E6F9DC08EF09EC08FF012000101AF6F6B
:100698000101AE6B0101A86B0101A96B0101AF510A
:1006A800D8A412000101AF51110DB20EF3240101BB
:1006B800B06F010EF420B16F010120EE01F0B051CE
:1006C800D926B151DA22010EDF640AD0010120EEE9
:1006D80004F0B051D926B151DA22D00EDF60D00C27
:1006E800010120EE04F0B051D926B151DA22DF50D1
:1006F8000101A46FA4390F0B0001C86FC8C0A4F191
:10070800010E0101A56FA66BA42B03D0D890A537C5
:10071800A637A42FFBD7A5C1B6F0A6C1B7F0B0C1C4
:1007280087F0B1C188F02BEC12F0010120EE0EF039
:10073800B051D926B151DA22000187C0DEFF88C046
:10074800DDFF010120EE06F0B051D926B151DA22C1
:1007580010EE0EF0B051E126B151E222DE50E65C17
:10076800DE50E65853E3010120EE10F0B051D926CF
:10077800B151DA22DF50030B020A04E1010E010134
:10078800A96F44D0010120EE02F0B051D926B15131
:10079800DA22DF500101AC6FAD6B0101AC5108ECFE
:1007A80019F0000911E0010E0101A96F01D82ED03E
:1007B8000500FA6E0001D451FD6ED551FE6EFF6A38
:1007C800FA500101AF5112000101AC4BAD2B0101F0
:1007D80020EE02F0B051D926B151DA22DF500101E2
:1007E800A46FA56B010120EE03F0B051D926B151D9
:1007F800DA22DF500101A427000EA523A45101012C
:10080800AC5D0101A5510101AD59C7E30101A95131
:1008180034E1010120EE0EF0B051D926B151DA22AF
:10082800DE6ADD6A20EE10F0B051D926B151DA2225
:10083800DF50030B020A17E1010120EE10F0B0515E
:10084800D926B151DA22010EDF6E01D84DD005004C
:10085800FA6E0001D251FD6ED351FE6EFF6AFA5056
:100868000101AF511200010120EE10F0B051D9265C
:10087800B151DA22010EDF6E37D0B0C19FF0B1C19D
:10088800A0F04CEC14F09FC0AAF1A0C0ABF101019C
:1008980020EE0CF0B051D926B151DA220101AA514B
:1008A800DE1803E1AB51DE181BE00101AE85010142
:1008B80020EE0CF0B051D926B151DA22AAC1DEFFE0
:1008C800ABC1DDFF01D80CD00500FA6E0001D6518E
:1008D800FD6ED751FE6EFF6AFA500101AF5112004A
:1008E8000101AE830101AE8F010120EE10F0B0517D
:1008F800D926B151DA22AEC1DFFF0101AE51820B18
:100908000101A81312000001806F00018051020D3F
:10091800540EF324D96E010EF420DA6E8051060DC0
:10092800000E00017C6F010E7D6FF3507C27F450A0
:100938007D23900E00018025E16EE26A010EE2221D
:10094800E750E72A020DF35000017C25E16EF450D0
:100958007D21E26EDECFE6FFDDCFE5FF900E0001E0
:100968008025D96EDA6A010EDA22020EDF6408D019
:10097800900E00018025D96EDA6A010EDA22DF6A4C
:1009880000018051060D020EF324D96E010EF420E9
:10099800DA6E8051060D000EF324E16E010EF4208C
:1009A800E26EDE50E65CDE50E65856E30001805108
:1009B800060D040EF324D96E010EF420DA6E805170
:1009C800060D020EF324E16E010EF420E26EDE50F5
:1009D800E65CDE50E6580EE300018051060D020E7B
:1009E800F324D96E010EF420DA6EDECF7AF0DDCF73
:1009F8007BF0120000018051060D040EF324D96E1D
:100A0800010EF420DA6E8051060D000EF324E16E1B
:100A1800010EF420E26EDE50E65CDE50E6580EE38E
:100A280000018051060D040EF324D96E010EF42046
:100A3800DA6EDECF7AF0DDCF7BF012000001805154
:100A4800060D000EF324D96E010EF420DA6EDECF07
:100A58007AF0DDCF7BF0120000018051060D040E04
:100A6800F324D96E010EF420DA6E8051060D000EC3
:100A7800F324E16E010EF420E26EDE50E65CDE50F7
:100A8800E6580EE300018051060D000EF324D96EDE
:100A9800010EF420DA6EDECF7AF0DDCF7BF01200A3
:100AA80000018051060D040EF324D96E010EF420C6
:100AB800DA6E8051060D020EF324E16E010EF42069
:100AC800E26EDE50E65CDE50E6580EE3000180512F
:100AD800060D040EF324D96E010EF420DA6EDECF73
:100AE8007AF0DDCF7BF0120000018051060D020E76
:100AF800F324D96E010EF420DA6EDECF7AF0DDCF62
:100B08007BF0120068C0D9FF69C0DAFFDF5000012E
:100B18006E6F68C064F069C065F0000120EE08F0EF
:100B28006451D9266551DA22DFA802D0010E01D01E
:100B3800000E00095BE1000120EE04F06851D9269F
:100B48006951DA22DF5000016A6F6B6B090ED89089
:100B58006A376B37E82EFBD772506A5D73506B5952
:100B680028E2000120EE05F06851D9266951DA2201
:100B7800DF2A1E0EDF64000C68C064F069C065F0EF
:100B8800000120EE08F06451D9266551DA22DF8889
:100B980020EE03F06451D9266551DA22080EDF6E83
:100BA80020EE02F06451D9266551DA22800EDF6EFC
:100BB800000C68C064F069C065F0000120EE08F020
:100BC8006451D9266551DA22DF8820EE03F064519A
:100BD800D9266551DA22080EDF6E20EE02F0645144
:100BE800D9266551DA22800EDF6E000C000120EE56
:100BF80004F06851D9266951DA22DF5000016A6F82
:100C08006B6BD8906A376B3700016E51020D540E2A
:100C1800F324D96E010EF420DA6EDECF6CF0DDCF4E
:100C28006DF0725000016C5D0001646F735000013B
:100C38006D590001656FF3EC18F000016A5100016D
:100C4800645D00016B51000165590CE2000120EE62
:100C580002F06851D9266951DA22800EDF6E0DD074
:100C680011D0000C000120EE03F06851D92669511B
:100C7800DA22770EDF6416D0E9D768C064F069C05D
:100C880065F0EED7000120EE08F06451D9266551D1
:100C9800DA22DF8620EE08F06451D9266551DA227F
:100CA800DF98000C000120EE03F06851D926695145
:100CB800DA22080EDF26000C00017F6B000EF2BE60
:100CC800010E00017E6F0DD00001C62B0E0EC61955
:100CD80008E10001C66B0001C56B010E00017F6FC2
:100CE8000CD00001C65156EC19F00009EDE10001E5
:100CF800C65143EC19F00009E7E000017F51D8A480
:100D080012000001C651090D000EF3240001806F86
:100D1800020EF420816F80C07AF081C07BF0000160
:100D280020EE08F07A51D9267B51DA22DFA602D0CC
:100D3800010E01D0000E000915E0000120EE03F0BD
:100D48008051D9268151DA22DF500F015C6F0001F2
:100D580020EE02F08051D9268151DA22DF500F01AE
:100D68005E6F2AD080C07AF081C07BF0000120EE4F
:100D780008F07A51D9267B51DA22DFA802D0010E79
:100D880001D0000E000913E0000120EE02F08051AE
:100D9800D9268151DA22DF500F015E6F000120EE63
:100DA80003F08051D9268151DA22DF5003D0800E1A
:100DB8000F015E6F0F015C6F0001C2510F015E27CA
:100DC800000120EE01F08051D9268151DA22DF504E
:100DD8000F015F6F000120EE04F08051D926815188
:100DE800DA22DF5000017C6FD8907C31666E0001FA
:100DF80020EE05F08051D9268151DA22DF500F010B
:100E08005D6F608E010E0001C56F00017A6F0001F1
:100E1800C6510BEC0DF0F29E6080000120EE04F04C
:100E28008051D9268151DA22DF5000017C6F7D6B19
:100E3800090ED8907C377D37E82EFBD77CC070FF31
:100E48007DC071FF00017EA102D0F28E01D0F29E1A
:100E58000001C46B12000001696B000EF2BE010EA6
:100E68000001686F0DD00001C62B0E0EC61908E1EF
:100E78000001C66B0001C56B010E0001696F0CD043
:100E88000001C6517CEC19F00009EDE10001C651E2
:100E98008FEC19F00009E7E000016951D8A41200AD
:100EA8000001C651090D000EF32400016A6F020EFD
:100EB800F4206B6F6AC064F06BC065F0000120EE2F
:100EC80008F06451D9266551DA22DFA602D0010E56
:100ED80001D0000E000915E0000120EE03F06A5170
:100EE800D9266B51DA22DF500F015C6F000120EE2A
:100EF80002F06A51D9266B51DA22DF500F015E6F7A
:100F08002AD06AC064F06BC065F0000120EE08F0DA
:100F18006451D9266551DA22DFA802D0010E01D02A
:100F2800000E000913E0000120EE02F06A51D926F4
:100F38006B51DA22DF500F015E6F000120EE03F0E3
:100F48006A51D9266B51DA22DF5003D0800E0F0187
:100F58005E6F0F015C6F0001C2510F015E27000137
:100F680020EE01F06A51D9266B51DA22DF500F01C9
:100F78005F6F000120EE04F06A51D9266B51DA2226
:100F8800DF500001666FD8906631666E000120EE72
:100F980005F06A51D9266B51DA22DF500F015D6FD7
:100FA800608E010E0001C56F0001646F0001C6511B
:100FB8008EEC0DF0F29E6080000120EE04F06A5184
:100FC800D9266B51DA22DF500001666F676B090E74
:100FD800D89066376737E82EFBD766C070FF67C0C2
:100FE80071FF000168A102D0F28E01D0F29E0001CB
:100FF800C46B12000001876B886B00018A6B46D0B6
:1010080000018A51060D000E00017E6F010E7F6FF0
:10101800F3507E27F4507F230001C351020DF35093
:1010280000017E25D96EF4507F21DA6EDECF80F084
:10103800DDCF81F000018A51020D540EF324D96EE0
:10104800010EF420DA6EDECF82F0DDCF83F00001EE
:101058008051825D00017A6F00018151835900013E
:101068007B6FDEEC18F07AC085F07BC086F000015B
:1010780085510001875D000186510001885904E20D
:1010880085C087F086C088F000018A2B0D0E00010C
:101098008A65B6D70001885103E1650E875D5CE378
:1010A800AB0E0001C325D96EDA6A000EDA22DF2AF8
:1010B800050EDF64050C0001846BCF0E0001C3250B
:1010C800D96EDA6A000EDA22DF500001896F00015A
:1010D800895103E00001890703D0780E0001896F68
:1010E800010E0001846F00018B6B14D00001C35105
:1010F80000018B190DE0CF0E00018B25D96EDA6A3D
:10110800000EDA2200018951DE1802E10001846B29
:1011180000018B2B020E00018B65E8D7000184517A
:10112800D6E0CF0E0001C325D96EDA6A000EDA22A6
:1011380089C0DFFF00018B6B020E00018B6501D0B7
:10114800020CAB0E00018B25D96EDA6A000EDA228A
:10115800DF6A00018B2BF0D70001885116E1320EAF
:10116800875DD8B01200AB0E0001C325D96EDA6ACC
:10117800000EDA22DF50D8B41200AB0E0001C325EE
:10118800D96EDA6A000EDA22DF061200010120EEBB
:101198000FF09F51D926A051DA22DF500008010133
:1011A800A16F010120EE0AF09F51D926A051DA2241
:1011B800DE50800A0101A36FA151800AA35D27E2D6
:1011C800010120EE0BF09F51D926A051DA22DE2A28
:1011D800000EDD2220EE0BF09F51D926A051DA2215
:1011E800010EDB5003E1410EDE5C64E3010120EEF9
:1011F8000BF09F51D926A051DA22DE6ADD6A9FC121
:10120800D9FFA0C1DAFFDF5053EC15F053D001012C
:1012180020EE0AF09F51D926A051DA2210EE0FF0E5
:101228009F51E126A051E222E650800A0101A36FF6
:10123800DE50800AA35D35E2010120EE03F09F51E4
:10124800D926A051DA22DF5009E09FC182F0A0C15F
:1012580083F0DEEC0AF0000901E01200010120EE43
:1012680002F09F51D926A051DA22020EDF6E20EE3D
:101278000BF09F51D926A051DA22000EDE6ADD6AF2
:1012880001D818D00500FA6E0001DA51FD6EDB5165
:10129800FE6EFF6AFA509FC1D9FFA0C1DAFFDF5086
:1012A8001200010120EE0BF09F51D926A051DA223D
:1012B800DE6ADD6A010120EE0DF09F51D926A051AA
:1012C800DA22DE2A000EDD2220EE0DF09F51D9260B
:1012D800A051DA22400EDE18DE10D8A41200010157
:1012E80020EE0DF09F51D926A051DA22DE6ADD6A80
:1012F80020EE03F09F51D926A051DA22DF5009E0F1
:101308009FC182F0A0C183F0DEEC0AF0000901E081
:1013180012009FC17AF0A0C17BF0FEEF0BF0000134
:1013280085510001815D000186510001825957E312
:10133800FE0E0001886F8969885100018503F3CF8B
:101348008AF0F4CF8BF08603F35000018B27895184
:10135800000185030001F3508B2700018351000130
:101368008A270001845100018B230001815100016B
:101378008A2500018C6F0001825100018B21000138
:101388008D6F87C088F0010E0001896F8A6B882BEA
:1013980003D0D89089378A37882FFBD70001855129
:1013A8000001835D00017A6F0001865100018459B4
:1013B80000017B6F8CC07CF08DC07DF087C07EF013
:1013C80081EC12F00001895100017A5D00018C6FF7
:1013D80000018A5100017B5900018D6F41D0FE0E3A
:1013E8000001886F8969885100018103F3CF8AF071
:1013F800F4CF8BF08203F35000018B278951000151
:1014080081030001F3508B270001835100018A27D3
:101418000001845100018B230001855100018A25B8
:1014280000018C6F0001865100018B2100018D6F36
:10143800000181510001855D00017A6F0001825130
:101448000001865900017B6F8CC07CF08DC07DF057
:1014580087C07EF081EC12F07AC08CF07BC08DF0F2
:101468008CC081F08DC082F012000001936B0001E6
:1014780020EE05F08751D9268851DA22DF50000185
:10148800926F000120EE0CF08751D9268851DA229C
:10149800DECF8EF0DDCF8FF087C07AF088C07BF08A
:1014A8008EC07CF08FC07DF089C07EF08AC07FF04E
:1014B80018EC11F07AC094F07BC095F0000195AF5C
:1014C8000CD0000194510008946F9551D8A0E82AD7
:1014D8000008956F010E0001936F000193052AE142
:1014E800000120EE09F08751D9268851DA22DF5011
:1014F80000018B6F8C6B0001945100018B5D8C5146
:10150800800A8D6F00019551800A00018D5912E201
:10151800000120EE08F08751D9268851DA2292C0BE
:10152800DFFF20EE09F08751D9268851DA22000E14
:10153800DF6A2BD0000193512DE1000120EE08F065
:101548008751D9268851DA22DF5000018B6F8C6BC6
:101558000001945100018B5D8C51800A8D6F000150
:101568009551800A00018D5915E2000120EE08F01E
:101578008751D9268851DA22DF6A20EE09F087518F
:10158800D9268851DA2292C0DFFF89C090F08AC03C
:1015980091F00BD0000120EE0CF08751D92688512C
:1015A800DA22DECF90F0DDCF91F090C087F091C0C5
:1015B80088F01200000120EE03F08251D9268351F1
:1015C800DA22DF500001886F000120EE0FF082510F
:1015D800D9268351DA22DF500001846F856B84BFDE
:1015E800850782C07AF083C07BF0F3EC15F0000128
:1015F800845100017A5D0001866F00018551000168
:101608007B590001876F000E00018B6F030E8C6FF2
:1016180000018C51030801E15FD061E382C0D9FF6A
:1016280083C0DAFF8BC0E1FF8CC0E2FFDE50E61812
:101638004BE0000120EE03F08B51D9268C51DA22C1
:1016480000018851DE1840E1000120EE02F08B51C4
:10165800D9268C51DA22020EDE1801E1010C0001B4
:1016680020EE0FF08B51D9268C51DA22DF50000181
:10167800846F856B84BF85078BC07AF08CC07BF044
:10168800F3EC15F00001845100017A5D0001896FC7
:101698000001855100017B5900018A6F00018ABF52
:1016A80013D08A5102E189050FE300018951000135
:1016B800865D8751800A0001846F00018A51800A83
:1016C8000001845901E2010C110E00018B27000E64
:1016D8008C238C51030802E18B51DD089FE2000C3A
:1016E80000018B6F00018B51090D000EF3240001DE
:1016F8008C6F020EF4208D6F8CC07AF08DC07BF059
:101708003DEC1AF0000969E0000120EE06F08C516A
:10171800D9268D51DA22DECF85F0DDCF86F00001A3
:101728008B51020D540EF324D96E010EF420DA6E9B
:10173800DECF87F0DDCF88F000018551875D00019D
:101748007A6F00018651885900017B6FDEEC18F032
:10175800000120EE04F08C51D9268D51DA22DF5099
:101768000001896F8A6BD89089378A37D890893772
:101778008A3700017A510001895D00017B5100011F
:101788008A590DE28CC07AF08DC07BF0000120EE02
:1017980008F07A51D9267B51DA22DF840CD08CC02C
:1017A8007AF08DC07BF0000120EE08F07A51D9263E
:1017B8007B51DA22DF948CC081F08DC082F0CEECB0
:1017C80016F00500FA6E0001DC51FD6EDD51FE6E6B
:1017D800FF6AFA5000018B5112008CC07AF08DC05C
:1017E8007BF0000120EE08F07A51D9267B51DA22ED
:1017F800DF941200F2AE45D0F29E000120EE06F012
:101808007A51D9267B51DA22DECF7CF0DECF7DF00B
:10181800DECF7EF0DECF7FF0050E06D00001D89037
:101828007F337E337D337C33E82EF8D7000120EEFA
:1018380006F07A51D9267B51DA2200017C51DE5E0E
:101848007D51DE5A7E51DE5A7F51DE5A000120EE6C
:1018580004F07A51D9267B51DA22DECF7CF0DDCF35
:101868007DF020EE06F07A51D9267B51DA2200016C
:101878007C51DE267D51DE22000EDE22DE22F28E33
:10188800000C000120EE06F07A51D9267B51DA22AD
:10189800DECF7CF0DECF7DF0DECF7EF0DECF7FF0D6
:1018A800050E06D00001D8907F337E337D337C331C
:1018B800E82EF8D7000120EE06F07A51D9267B51A0
:1018C800DA2200017C51DE5E7D51DE5A7E51DE5AFD
:1018D8007F51DE5A000120EE04F07A51D9267B515F
:1018E800DA22DECF7CF0DDCF7DF020EE06F07A51F3
:1018F800D9267B51DA2200017C51DE267D51DE2279
:10190800000EDE22DE22000C00017C6F46D00F01A3
:1019180010910F01119160D00F0110930F011193D5
:101928005BD00F0110950F01119556D00F0110973C
:101938000F01119751D00F0110990F0111994CD037
:101948000F01109B0F01119B47D00F01109D0F0134
:10195800119D42D00F01109F0F01119F3DD00F0123
:1019680018910F01199138D00F0118930F0119938D
:1019780033D00F0118950F0119952ED00F01189724
:101988000F01199729D00F0118990F01199924D01F
:101998000F01189B0F01199B1FD000017C51B7E064
:1019A800010ABAE0030ABDE0010AC0E0070AC3E081
:1019B800010AC6E0030AC9E0010ACCE00F0ACFE039
:1019C800010AD2E0030AD5E0010AD8E0070ADBE001
:1019D800010AD8A4FF0CDCD700017C51A2EC19F055
:1019E80000017C51C6EC19F000017C51090D000E74
:1019F800F32400017A6F020EF4207B6F000120EEC1
:101A080008F07A51D9267B51DA22DF92000C0001C6
:101A18007B6F62D000017AB102D0889001D08880B3
:101A2800120000017AB102D0889201D08882120097
:101A380000017AB102D0889401D088841200000194
:101A48007AB102D0889601D08886120000017AB156
:101A580002D0889801D08888120000017AB102D09B
:101A6800889A01D0888A120000017AB102D0889C35
:101A780001D0888C120000017AB102D0889E01D072
:101A8800888E120000017AB102D0899001D0898035
:101A9800120000017AB102D0899201D08982120025
:101AA80000017AB102D0899401D089841200000122
:101AB8007AB102D0899601D08986120000017AB1E4
:101AC80002D0899801D08988120000017AB102D029
:101AD800899A01D0898A120000017B519BE0010A92
:101AE800A0E0030AA5E0010AAAE0070AAFE0010A9C
:101AF800B4E0030AB9E0010ABEE00F0AC3E0010A34
:101B0800C8E0030ACDE0010AD2E0070AD7E0010ADB
:101B1800DCE012000001656F62D0000164B102D000
:101B2800889001D088801200000164B102D08892A8
:101B380001D088821200000164B102D0889401D0DB
:101B480088841200000164B102D0889601D088868A
:101B58001200000164B102D0889801D08888120070
:101B6800000164B102D0889A01D0888A120000016D
:101B780064B102D0889C01D0888C1200000164B145
:101B880002D0889E01D0888E1200000164B102D074
:101B9800899001D089801200000164B102D0899235
:101BA80001D089821200000164B102D0899401D069
:101BB80089841200000164B102D0899601D0898617
:101BC8001200000164B102D0899801D089881200FE
:101BD800000164B102D0899A01D0898A12000001FB
:101BE80065519BE0010AA0E0030AA5E0010AAAE00A
:101BF800070AAFE0010AB4E0030AB9E0010ABEE04F
:101C08000F0AC3E0010AC8E0030ACDE0010AD2E0E6
:101C1800070AD7E0010ADCE01200000120EE06F016
:101C28007A51D9267B51DA22DECF7CF0DECF7DF0E7
:101C3800DECF7EF0DECF7FF0050E06D00001D89013
:101C48007F337E337D337C33E82EF8D7000120EED6
:101C580004F07A51D9267B51DA22DECF80F0DDCF2D
:101C680081F000018051826F8151836F846B856B95
:101C78007C51825D0001866F00017D51835900010E
:101C8800876F00017E5184590001886F00017F51E0
:101C980085590001896F000120EE10F07A51D9268C
:101CA8007B51DA22DF5000017C6F7C297D6F06D0E2
:101CB80000018935893388338733863300017D2FC6
:101CC800F7D7000189BF0DD089518811871103E129
:101CD800800E865D06E37F0E0001866F876B886B3A
:101CE800896B000189AF0FD0800E865DFF0E875982
:101CF800FF0E8859FF0E895906E2800E0001866F93
:101D0800876988698969000120EE0AF07A51D92625
:101D18007B51DA2286C0DFFF1200000120EE0AF0B4
:101D28008751D9268851DA22DECF93F0DDCF94F09F
:101D380087C07AF088C07BF093C07CF094C07DF0B7
:101D480089C07EF08AC07FF018EC11F07AC095F057
:101D58007BC096F000019505961105E000019529D4
:101D680007E1962905E193C08FF094C090F04BD01D
:101D7800000196AF1ED0000195510008956F96514D
:101D8800D8A0E82A0008966F95C091F096C092F006
:101D98000001D8909233913300019151000800015D
:101DA800956F00019251D8A0E82A00080001966FAB
:101DB8000CD095C091F096C092F00001D890923363
:101DC800913391C095F092C096F0000193510001B3
:101DD800952500018F6F00019451000196210001A3
:101DE800906F00018B698C69B6C08DF0B7C08EF01A
:101DF8008B518D278C518E238D5100018F17000137
:101E08008E51000190178FC087F090C088F01200A3
:101E1800010120EE0BF09F51D926A051DA22E80EDD
:101E2800DE5C030EDE5816E39FC1D9FFA0C1DAFFBE
:101E3800DF5053EC15F00500FA6E0001D851FD6E25
:101E4800D951FE6EFF6AFA509FC1D9FFA0C1DAFFCF
:101E5800DF501200010120EE0FF09F51D926A0514A
:101E6800DA22DF500101A16F010EA26FA135A13363
:101E7800A22FFCD7010120EE0FF09F51D926A051C7
:101E8800DA22DF500101A36FA151A35DA46F010104
:101E980020EE0AF09F51D926A051DA22DE50800A9E
:101EA8000101A66FA451800AA65DD8B012000101F5
:101EB80020EE02F09F51D926A051DA22010EDF6EE2
:101EC80020EE0BF09F51D926A051DA22DE6ADD6A96
:101ED80020EE0DF09F51D926A051DA22DE68FB0EC4
:101EE800DD6E0500FA6E0001D851FD6ED951FE6E07
:101EF800FF6AFA509FC1D9FFA0C1DAFFDF50120074
:101F0800000120EE02F07B51D9267C51DA22DF5005
:101F180000017E6F0001C06B00017E510001C119F4
:101F280043E1000120EE01F07B51D9267C51DA22F1
:101F3800DE0436E1000120EE03F07B51D9267C5106
:101F4800DA22DF5000017E2500017D6F7D05D8EC87
:101F580019F00001B46FB56BB4BFB50700017E2955
:101F6800D8EC19F00001B26FB36BB2BFB307000130
:101F7800B3BF23D0B35102E1B2051FE30001B4514E
:101F88000001B25DB351800A00017D6F0001B551B7
:101F9800800A00017D5911E2010E0001C06F0DD0C9
:101FA8000001B46BB56B09D00001C105D8EC19F07C
:101FB8000001B46FB56BB4BFB5070001B5AF03D06E
:101FC8000001B46BB56BB4C07BF0B5C07CF01200F7
:101FD800010120EE0BF09F51D926A051DA22010E03
:101FE800DB500AE1090EDE5C07E29FC17DF0A0C16B
:101FF8007EF08EEC15F006D09FC17AF0A0C17BF080
:10200800FEEC0BF0010120EE0BF09F51D926A051F8
:10201800DA22DE2A000EDD22010120EE0BF09F51AC
:10202800D926A051DA22010EDB5004E1100EDE5C45
:10203800D8A01200010120EE06F09F51D926A05128
:10204800DA22DECFA1F1DECFA2F1DECFA3F1DECF1F
:10205800A4F1050E06D00101D890A433A333A2330E
:10206800A133E82EF8D7010120EE04F09F51D926BC
:10207800A051DA22A1C1DEFFA2C1DDFF20EE02F0ED
:102088009F51D926A051DA22010EDF6E20EE0BF007
:102098009F51D926A051DA22DE6ADD6A000C0101BF
:1020A800A96F0101A951110D000EF3240101AA6FB6
:1020B800030EF420AB6F010120EE01F0AA51D926DE
:1020C800AB51DA22DF5056EC19F00009D8B41200EF
:1020D800010120EE01F0AA51D926AB51DA22DF50D6
:1020E80069EC19F00009D8B41200AAC181F0ABC19B
:1020F80082F0FAEC19F0AAC17AF0ABC17BF011ECCE
:102108000EF0010120EE02F0AA51D926AB51DA22D5
:10211800020EDF6407D0AAC1D9FFABC1DAFFDF50D6
:1021280053EC15F0AAC19FF1ABC1A0F1010120EE5B
:1021380002F0AA51D926AB51DA22DF50020DC90E9E
:10214800F324D96E000EF420DA6EDECFA7F1DDCFCE
:10215800A8F10500FA6E0101A751FD6EA851FE6EA7
:10216800FF6AFA5012000001846B856B000120EEB3
:1021780002F07B51D9267C51DA22DF500001C16F71
:10218800000120EE02F07B51D9267C51DA22DF5083
:102198000001866F1FD000018651D8EC19F00001AC
:1021A800826F836B82BF8307000182510001845DC7
:1021B8008551800A00017D6F00018351800A00016A
:1021C8007D5906E286C0C1F082C084F083C085F0E4
:1021D8000001862B000120EE02F07B51D9267C51AC
:1021E800DA22DF5000017D6F7E6B000120EE03F0E4
:1021F8007B51D9267C51DA22DF5000017D27000E61
:102208007E230001865100017F6F806B7D517F5DC9
:102218008051800A816F7E51800A8159BCE384C055
:102228007BF085C07CF01200D8900001B731000126
:10223800806F0001B6310001836F80C084F0000117
:102248007C5100017E5D0001856F00017D51000118
:102258007F590001866F000120EE01F07A51D926DE
:102268007B51DA22DE0438E1000186AF1FD000017D
:10227800806B816B000183510001805F00018451F4
:102288000001815B80510001855D8651800A000153
:10229800826F8151800A82591FE20001B651000104
:1022A80085270001B7510001862316D0000185510A
:1022B8000001835D8451800A0001806F000186510E
:1022C800800A0001805908E20001B6510001855FCB
:1022D8000001B7510001865B85C07AF086C07BF0AB
:1022E8001200000120EE02F07D51D9267E51DA223B
:1022F800DF503CE0000120EE04F07D51D9267E51EC
:10230800DA22DECF7FF0DDCF80F00001D890803375
:102318007F33D89080337F33000120EE04F07D5165
:10232800D9267E51DA2200017F51DE5E8051DD5AC6
:10233800000120EE01F07D51D9267E51DA22DF50CE
:102348006AEC18F00001D8907B337A33D8907B334D
:102358007A33000120EE04F07D51D9267E51DA222D
:1023680000017A51DE267B51DD221200000120EEA9
:1023780001F07D51D9267E51DA22DF506AEC18F03F
:10238800000120EE04F07D51D9267E51DA220001A9
:102398007AC0DEFF7BC0DDFF12000001A76BF00EE4
:1023A800A817A35100017E6F0F0E0001A4150001AC
:1023B8007F6F00010001806B00010001816B7E517D
:1023C8000001A71300017F510001A81300018051EB
:1023D8000001A913000181510001AA131ED00001B8
:1023E800A899A89BA89DA89F12000001A889A89B4E
:1023F800A89DA89F12000001A889A88BA89DA89F46
:1024080012000001A889A88BA88DA89F12000001BE
:10241800A889A88BA88DA88F1200330E00017A6FA7
:102428000001A6511CEC18F000017E6F7F6B7F51F4
:10243800D8A412007E51D3E0010AD7E0030ADBE0FA
:10244800010ADFE0070AE3E0010AE1E0120087C0C1
:102458007BF088C07CF0B7EC10F07BC0B0F07CC09B
:10246800B1F087C07BF088C07CF0D5EC12F07BC05F
:10247800B2F07CC0B3F087C07BF088C07CF084ECFD
:102488000FF07BC0B4F07CC0B5F00001B251000180
:10249800B45DB551800A0001896F0001B351800A0B
:1024A8000001895909E20001B2510001B02500017B
:1024B8008B6F0001B35108D00001B4510001B02561
:1024C80000018B6F0001B5510001B12100018C6F33
:1024D800000120EE06F08751D9268851DA22DE5015
:1024E80000018B5DDE508C5903E200018B6B8C6B15
:1024F8008BC087F08CC088F0120000017F6B806B66
:1025080000017E2B00017C517D1107E13CD00001C8
:102518007E070001D8907A377B3700017BBF0AD04D
:1025280000017E5107E0F3D700017E2B0001D8900F
:102538007C377D3700017DAFF7D71ED00001D890DA
:102548007F37803700017E0700017C5100017A5DEA
:1025580000017D5100017B590BE300017C51000112
:102568007A5F00017D5100017B5B00017F4B802B6E
:102578000001D8907D337C3300017E5107E00001D3
:1025880080AFDCD703D000017F69806900017E51EC
:1025980003E000017F6980697FC07AF080C07BF02A
:1025A8001200000120EE02F07B51D9267C51DA227C
:1025B800DF500001836F0001C15100017D6F7E6B08
:1025C8007F698069000120EE03F07B51D9267C5198
:1025D800DA22DF5083C081F00001826B8127000E70
:1025E80082237F518127805182237D51811915E1F2
:1025F8007E51821912E1000120EE01F07B51D926AB
:102608007C51DA22DE0405E100018351D8EC19F08F
:1026180008D00001B26BB36B09D00001C129D8EC16
:1026280019F00001B26FB36BB2BFB3070001B3AFCB
:1026380003D00001B26BB36BB2C07BF0B3C07CF0C7
:1026480012000E01CB930001646BC6518EEC0DF0A5
:102658000001C451D8B402D0609E3DD0609E0001F4
:10266800C651090D000EF3246F6F020EF420706F2F
:102678006FC064F070C065F0000120EE08F064518E
:10268800D9266551DA22DFA602D0010E01D0000E4C
:102698000009D8A407D06FC068F070C069F086EC54
:1026A80005F00CD06FC064F070C065F0000120EE3A
:1026B80008F06451D9266551DA22DF820001C6513B
:1026C800020D540EF324D96E010EF420DA6E72CF87
:1026D800DEFF73CFDDFF2FEC07F0120000017A6FE9
:1026E80000017A51D8A4120000017A51110DB20EDE
:1026F800F32400017B6F010EF4207C6F000120EEB3
:1027080010F07B51D9267C51DA22DF6A000120EED5
:1027180008F07B51D9267C51DA22DF6A000120EECD
:1027280005F07B51D9267C51DA2210EE09F07B5155
:10273800E1267C51E222DFCFE7FF000120EE0AF01C
:102748007B51D9267C51DA22DE6ADD6A000120EE4F
:102758000CF07B51D9267C51DA22DE6ADD6A000151
:1027680020EE0EF07B51D9267C51DA22DE6ADD6A32
:10277800000C0001606F39D0010E0001B86F010C28
:10278800020E0001B86F020CDEC0B9F019D0A30E1A
:102798000001B925D96EDA6A000EDA22DEC0DFFF41
:1027A8000001B92B070E0001B9650AD00001B96B09
:1027B80007D00001B851EBE0010AE6E0030AE7E1BF
:1027C8000001B86B1200A30E0001B925D96EDA6AB0
:1027D800000EDA22DF50926E0001B92B070E0001BD
:1027E800B965070C0001B96B120000016051C4E023
:1027F800010AE9E0030ADDE0010AD8B41200070A79
:10280800BFE01200836A846A400E856E88683F0EB6
:10281800896E980E8A6E0F01216B3F0E0F01196F9A
:102828000F0111690F012D6B0F01186B0F01106B50
:10283800980E0F01206F0F010F6B0F01176B0F011F
:102848001F6B0F010E690F0116690F011E69550EE6
:102858000E01A06FAA0EA06F0E01A091170E0E0117
:10286800B56F090E0E01FD6F130E0E01B76F0D0E39
:102878000E01FA6F0E0E0E01FB6F140E0E01B86FEB
:10288800550E0E01A06FAA0EA06F0E01A081AA0C12
:102898009FC08EF0A0C08FF0FFEC01F08EC0A2F1B7
:1028A8008FC0A3F1000120EE10F09F51D926A0514E
:1028B800DA22DF50030B020A05E0A2C1A0F1A3C18E
:1028C800A1F10ED09FC087F0A0C088F0A2C189F006
:1028D800A3C18AF091EC0EF087C0A0F188C0A1F1E5
:1028E800000120EE0AF09F51D926A051DA22A2C198
:1028F800DEFFA3C1DDFF9FC087F0A0C088F0A0C1A4
:1029080089F0A1C18AF039EC0AF087C09EF188C02D
:102918009FF19EC19FF09FC1A0F0120001019E6F20
:102928009EC19CF0010E00019D6F9E6B9C2B03D0F5
:10293800D8909D379E379C2FFBD79DC09FF09EC097
:10294800A0F0000E0001A0BFFF0EA16FA26F9F5163
:102958000001A3130001A0510001A4130001A1511B
:102968000001A5130001A2510001A6130C0E0101DC
:102978009E610C0CE30E0001866F3F0E876F9EC1AF
:1029880088F00001896BA3C08AF0A4C08BF0A5C0B1
:102998008CF0A6C08DF067EC00F085821200010172
:1029A8009E6F9EC19CF0010E00019D6F9E6B9C2B3B
:1029B80003D0D8909D379E379C2FFBD700019D1DD3
:1029C8009F6F9E1DA06FA16BA0BFA107A151A26F11
:1029D8009F510001A3170001A0510001A417000195
:1029E800A1510001A5170001A2510001A6170C0E64
:1029F80001019E610C0CD20E0001866F3F0E876F9D
:102A08009EC188F00001896BA3C08AF0A4C08BF036
:102A1800A5C08CF0A6C08DF067EC00F0859212007E
:102A2800818E819CB00EF66E350EF76E000EF86E34
:102A380001EEB2F010EE11F00900F5CFEEFFE5500F
:102A4800E150FAE1700EF66E350EF76E000EF86E74
:102A580000EEC9F010EE16F00900F5CFEEFFE550D4
:102A6800E150FAE103EE00F0EE0EEE6AE806FDE151
:102A780002EE00F07E0EEE6AE806FDE101EE00F0DF
:102A88009E0EEE6AE806FDE100EEA3F0260EEE6A61
:102A9800E806FDE101900192000150EF16F00001F7
:102AA8007B6F00017B51110D000EF32400017C6F38
:102AB800030EF4207D6F000120EE02F07C51D92630
:102AC8007D51DA22DF6A000120EE06F07C51D9261A
:102AD8007D51DA22DE6ADE6ADE6ADD6A000120EEF6
:102AE8000BF07C51D9267D51DA22DE6ADD6A0001BD
:102AF80020EE0DF07C51D9267D51DA22DE6ADD6A9E
:102B0800000120EE01F07C51D9267D51DA22DF50F8
:102B1800C6EF19F0000120EE01F07D51D9267E5153
:102B2800DA22DF506AEC18F000017A5100017F6F59
:102B380000017B510001806F816B826B000120EEE8
:102B480006F07D51D9267E51DA227FC0DEFF80C093
:102B5800DEFF81C0DEFF82C0DEFF000120EE06F04E
:102B68007D51D9267E51DA22040ED890DE36DE3623
:102B7800DE36DD36D906D906E82EF7D712000E0163
:102B8800C59B040E00017A6F310E7B6FF1EC1AF0D1
:102B98000E01C5996E0E00017A6F300E7B6FECEC5A
:102BA8001AF0080E9F6E900E9D6E240E9E6E820E79
:102BB8009B6E060E9C6E0001BF6B0001BE6B100E73
:102BC8000001E56F0001BD6B0001BC6B0001BB6B30
:102BD8009E989E8A9D889D8E0E01C58B12000001CD
:102BE80020EE06F07A51D9267B51DA22DECF7CF02E
:102BF800DECF7DF0DECF7EF0DECF7FF0050E06D093
:102C08000001D8907F337E337D337C33E82EF8D7AC
:102C1800000120EE04F07A51D9267B51DA22DECF6A
:102C280080F0DDCF81F000017C51805D00017A6F7A
:102C380000017D51815900017B6F1200550E000182
:102C4800616F848E0E01CD9192CF61F0020E00016A
:102C5800AF6F000EAE6F95A40BD095BA97AC04D0A9
:102C6800030EBDEC13F016D0010EBDEC13F012D01C
:102C780095BA0BD00001615104E1040EBDEC13F0CC
:102C880009D0000EBDEC13F005D061C0DEF0020ED5
:102C9800BDEC13F09688120040EC17F02DEC1AF0FA
:102CA8000001A76BA86BA96BAA6B0001A36BA46BAF
:102CB800A56BA66BF28EF28CF28C240E00017A6F53
:102CC800290E7B6F00EC1BF0A60E00017A6F290E0F
:102CD8007B6F05EC1BF0340E00017A6F310E7B6FB1
:102CE800F6EC1AF08584040052EC18F0D1EC11F0DF
:102CF800FAD7000120EE02F07A51D9267B51DA2268
:102D0800020EDE18D8A41200000120EE0BF07A5152
:102D1800D9267B51DA22DE2A000EDD2220EE0BF0C6
:102D28007A51D9267B51DA22DE50DE10D8A412005F
:102D3800000120EE0BF07A51D9267B51DA22DE68A9
:102D4800DD68FF0C7CC082F07DC083F07AC080F023
:102D58007BC081F012D082C0F6FF83C0F7FFF86A0B
:102D68000800F5CF84F0824B832B80C0D9FF81C047
:102D7800DAFF84C0DFFF804B812B00017E07D8A0DB
:102D88007F077E29E8E17F29E6E17AC07AF07BC0F7
:102D98007BF0120081C0D9FF82C0DAFFDF5087ECD8
:102DA80004F07AC083F07BC084F0F2AE0ED0F29EBD
:102DB800000120EE06F08151D9268251DA2283C023
:102DC800DEFF84C0DDFFF28E1200000120EE06F067
:102DD8008151D9268251DA2283C0DEFF84C0DDFF0B
:102DE800120000017F6B806B7C517D111BE0010E8E
:102DF8007E6F04D0D8907C377D377E2B7DAFFAD795
:102E0800D8907F3780377C517A5D7D517B5905E3B7
:102E18007C517A5F7D517B5B7F81D8907D337C3399
:102E28007E2FEED77FC07AF080C07BF012000001C1
:102E38007A6F01D004000001E551FCE00E01C5B92C
:102E480003D07AC09AFF15D00E01C599800E0001F3
:102E5800BF25D96EDA6A010EDA227AC0DFFF0001D7
:102E6800BF2B0F0E0001BF6502D00001BF6B000130
:102E7800E5070E01C5891200D750400E816EF65045
:102E880000017A6FF7507B6FF8507C6F7D6BFC0EFA
:102E9800F66EF7683F0EF86E0900F5500900F55018
:102EA8000900F5500800F550816A7AC0F6FF7BC02A
:102EB800F7FF7CC0F8FF800E816E800C000E0001C9
:102EC8007C6F020E7D6F14D001E212007CC07AF094
:102ED8007DC07BF0000120EE08F07A51D9267B51A5
:102EE800DA22DF92090E00017C27000E7D23000103
:102EF8007D510208E9E17C517508E6D7000183514C
:102F0800841117E0010E856F04D0D8908337843779
:102F1800852B84AFFAD78351815D8451825904E3AC
:102F28008351815F8451825BD89084338333852FAA
:102F3800F2D781C081F082C082F01200000E000139
:102F48007A6F020E7B6F430E00017C6F3F0E7D6F20
:102F5800000E00017F6F7E0E7E6FA6EC16F000015A
:102F6800856B06D00001855188EC0CF00001852B9B
:102F78000D0E00018565F6D70D0C000E00017A6F65
:102F8800030E7B6F550E00017C6F3E0E7D6F000EA9
:102F980000017F6FEE0E7E6FA6EC16F00001856BC8
:102FA80006D00001855153EC15F00001852B0D0E5C
:102FB80000018565F6D70D0C00018F6B15D0000157
:102FC8008F5156EC19F000090DE100018F5143ECC7
:102FD80019F0000907E00AEC1BF00009D8B460EC0E
:102FE80006F0000C00018F2B0D0E00018F65E7D74E
:102FF800E9EC19F0010C030E0F01576F0F01586B24
:103008000F015D6B6A6A6B6A6C6A6D6A686A696AE5
:10301800410E0F01596F8B0E0F015A6F0F0E0F01E2
:103028005B6FC40E606E0E01CB930E01C383C40C9C
:1030380000017B6F7D6B7A5114E0010E7C6F03D029
:10304800D8907A377C2B7AAFFBD7D8907D377A51D6
:103058007B5D03E37A517B5F7D81D8907A337C2F47
:10306800F4D77D511200100E0001E56114D0800ED6
:103078000001BE25D96EDA6A010EDA22DF509A6E97
:103088000001BE2B0F0E0001BE6502D00001BE6B11
:103098000001E52B12000E01C5991200010E000176
:1030A800C76FC75112E0E0EC17F0000901E1000C0E
:1030B80069EC1AF09EEC1AF0FBEC1AF00001C76FED
:1030C80062EC17F00FEC1BF0010C000C00017C6F98
:1030D8000E0E00017C610ED000017C51090D060E18
:1030E800F324D96E020EF420DA6EDECF7AF0DDCF4B
:1030F8007BF0120000017A6B7B6B12009DA202D05C
:103108009D989D88700E0001BD25D96EDA6A010E62
:10311800DA2299CFDFFF0001BD2B0F0E0001BD653C
:1031280002D00001BD6B0001BB2B120000019C6F97
:1031380000019C51B1EC18F07AC09DF07BC09EF064
:103148009DC0A6F0F20E0001866F3F0E876F9DC0EE
:1031580088F09EC089F067EF00F000017C6F0001E5
:103168007C510EE100017C51110DBE0EF324D96E85
:10317800010EF420DA6EDECF7AF0DDCF7BF012009C
:1031880000017A6B7B6B120000017E6B0ED0000190
:103198007E51110D000EF32400017A6F030EF42006
:1031A8007B6F7DEC16F000017E2B0D0E00017E6515
:1031B800EED70D0C00017BAF0DD07AC07CF07BC040
:1031C8007DF07C1F7D1F7C4B7D2B7CC07AF07DC001
:1031D8007BF012007AC07AF07BC07BF0120000010D
:1031E80065AF0DD064C066F065C067F0661F671FE5
:1031F800664B672B66C064F067C065F0120064C058
:1032080064F065C065F0120000017B6F0E0E0001CE
:103218007B61000C00017B51110D020EF324D96E65
:10322800030EF420DA6E020EDE18D8B4010C000C7E
:1032380000017A517C03F3CF7EF0F4CF7FF07A510E
:103248007D03F3507F277B517C03F3507F277EC09B
:103258007AF07FC07BF01200470ED66E7C0ED46EDB
:10326800D36A0E01CA9B0E01C28B560E00017A6FFB
:10327800350E7B6FE7EC1AF0800ED56E800C0001DE
:103288007A6F0E0E00017A61000C00017A51090D67
:10329800080EF324D96E020EF420DA6E0201DFB0B4
:1032A800010C000C00017A6F0E0E00017A61000C0F
:1032B80000017A51090D080EF324D96E020EF4208C
:1032C800DA6E0201DFB2010C000C00017A6F0E0EFB
:1032D80000017A61000C00017A51090D080EF324EF
:1032E800D96E020EF420DA6E0201DFB6010C000C72
:1032F8000001646F0E0E00016461000C000164514E
:10330800090D080EF324D96E020EF420DA6E0201BC
:10331800DFB2010C000C0001646F0E0E0001646145
:10332800000C00016451090D080EF324D96E020E39
:10333800F420DA6E0201DFB0010C000C00017A6F94
:103348000E0E00017A610E0C00017A51090D080E6B
:10335800F324D96E020EF420DA6E0201DF80120027
:103368000001C32B020EC36502D00001C36BCF0E50
:103378000001C325D96EDA6A000EDA22DF50000197
:10338800C26F120000017A6F0E0E00017A610E0CF6
:1033980000017A51090D080EF324D96E020EF420AB
:1033A800DA6E0201DF96120000017A6F0E0E00013C
:1033B8007A61000C00017A51110D0A0EF324D96EBE
:1033C800030EF420DA6EDF501200FEEC07F0000165
:1033D8008E6B06D000018E5174EC0BF000018E2B21
:1033E8000D0E00018E65F6D7B4EF19F0F2AE09D0D4
:1033F800F29E81C07DF082C07EF075EC11F0F28EF5
:10340800120081C07DF082C07EF075EF11F00E01D0
:10341800CA9B0001DF51E011D8B412000500FA6E12
:103428000001DF51FD6EE051FE6EFF6AFA50120096
:10343800D9CF62F0DACF63F00E01C5A104D00E0136
:10344800CDB122EC16F063C0DAFF62C0D9FF019259
:103458001100C3EC1AF077EC1AF006EC14F084ECC7
:103468001AF05BEC1AF030EC19F0C3EC15F0CEEF63
:103478001AF000017A517B110AE0000120EE08F0F1
:103488007A51D9267B51DA22DFB0010C000C000CEE
:1034980000017C6F7B6B3A0E7C6105D02F0E7C653A
:1034A80002D0010E7B6F7BC07AF07A311200956AE8
:1034B800260E966E810E976E986A200E946E936E05
:1034C8000E01CD910E01C581200C0101AC6B06D017
:1034D8000101AC5153EC10F00101AC2B0D0E0101B0
:1034E800AC65F6D70D0C0E01E16B0E01E26B0E0117
:1034F800E36B0E01E46B0E01E56B0E01E66B120047
:10350800600E0E01D86F0E01DA6B0E01DC6B080E2F
:103518000E01DE6F0E01DD6B120000017D6B06D01F
:1035280000017D5172EC13F000017D2B00017D51EB
:10353800F7E012000001A16B06D00001A1514AEC8E
:1035480003F00001A12B0001A151F7E012000001D6
:10355800BA2B0001AE51AF1102E114EF1BF00001CC
:10356800AE07D8A0AF071200D81F9411181E003C50
:103578007822362236223626362636243655F28AE0
:103588000E01BD810E01BA9B0E01BB930E01BD99C0
:10359800BD9B1200A2EC17F0C1EC17F091EC1AF0E9
:1035A80062EC17F00DEF1BF000000C02800F6400B6
:0935B8000000000000000000000A
:1035C20000017B6F00017B511BEF17F07AC0DFF027
:1035D2007BC0E0F012007AC0E3F07BC0E4F012009E
:1035E2007AC0E1F07BC0E2F012007AC0D6F07BC074
:1035F200D7F0120000017A6B00017A5112007AC0F2
:10360200DAF07BC0DBF012007AC0D8F07BC0D9F0D0
:1036120012000001C5511200FFEF17F0C8EF18F0B9
:08362200120012001200120058
:103E42000001000A006400E80310270100100000CE
:103E5200010010000000000000000000000000004F
:103E620000006401010100000000000000000000E9
:103E720000000064010202000000000000000000D7
:103E820000000000640103030000000000000000C5
:103E920000000000006401040400000000000000B3
:103EA20000000000000064010505000000000000A1
:103EB200000000000000006401060600000000008F
:103EC200000000000000000064010707000000007D
:103ED200000000000000000000640108080000006B
:103EE2000000000000000000000064010909000059
:103EF200000000000000000000000064010A0A0047
:103F020000000000000000000000000064010B0B34
:103F12000000000000000000000000000064010C2E
:103F22000C0001000000000000000000000064011D
:103F32000D0D000100000000000000000000006400
:103F4200010000502820000000000101502820003C
:103F52000000000202502820000000000303502845
:103F62002000000000040450282000000000050585
:103F72005028200000000006065028200000000003
:103F820007075028200000000008085028200000E1
:103F920000000909502820000000000A0A502820C9
:103FA200000000000B0B502820000000000C0C50F9
:103FB2002820000000000D0D5028200000000030D5
:103FC20031323334353637383961626364656600BD
:103FD20052656C65617365202564202534780A0D6D
:103FE200005072657373202564202534780A0D0011
:0D3FF200536C696465722025640A0D00009F
:020000040020DA
:10000000FF0FFF0FFF0FFF0FFF0FFF0FFF0FFF0F80
:020000040030CA
:0C0000008CFFFFF7E7FFFFFFFFFFFFFF93
:00000001FF
